:020000040800F2
:1008000000000120C5910008B36F0008B96F00080F
:10081000BF6F0008C56F0008CB6F00080000000024
:10082000000000000000000000000000D16F000880
:10083000DF6F000800000000ED6F0008FB6F00088C
:1008400015920008159200081592000815920008EC
:1008500015920008159200081592000815920008DC
:1008600015920008159200081592000809700008FA
:1008700015920008159200081592000815920008BC
:1008800015920008159200081D70000831700008CC
:1008900045700008597000086D7000081592000836
:1008A000159200081592000815920008159200088C
:1008B0001592000800000000000000008170000890
:1008C000957000081592000815920008159200080E
:1008D000A9700008BD70000815920008D9700008C2
:1008E00015920008159200080000000000000000AA
:1008F00000000000000000000000000000000000F8
:100900000000000015920008000000001592000889
:10091000000000000000000015920008E9700008C7
:10092000159200081592000815920008159200080B
:100930001592000800000000000000000000000008
:1009400015920008159200081592000815920008EB
:1009500015920008159200081592000815920008DB
:10096000159200081592000815920008000000007A
:10097000159200081592000815920008000000006A
:0C0980001592000815920008159200085E
:1009900010B5054C237833B9044B13B10448AFF3B9
:1009A00000800123237010BDC01300200000000050
:1009B000C0A1010808B5034B1BB103490348AFF3BD
:1009C000008008BD00000000C4130020C0A1010881
:1009D00010F8012B11F8013B012A28BF9A42F7D0E9
:1009E000D01A7047034613F8012B002AFBD1181ABE
:1009F0000138704700000000000000000000000007
:100A000001F0FF01102A2BDB10F0070F08D010F8BF
:100A1000013B013A8B422DD010F0070F42B3F6D1C3
:100A2000F0B441EA012141EA014122F007047FF0DC
:100A300000070023F0E80256083C85EA010586EA33
:100A4000010685FA47F5A3FA87F586FA47F6A5FA6F
:100A500087F68EB9EED1F0BC01F0FF0102F007027B
:100A600032B110F8013B013A83EA010313B1F8D126
:100A70000020704701387047002D06BF3546033807
:100A8000073815F0010F07D1013015F4807F02BF40
:100A9000013015F4C03F0130F0BC0138704700BF91
:100AA00081F0004102E000BF83F0004330B54FEA1F
:100AB00041044FEA430594EA050F08BF90EA020F8C
:100AC0001FBF54EA000C55EA020C7FEA645C7FEA1F
:100AD000655C00F0E2804FEA5454D4EB5555B8BF42
:100AE0006D420CDD2C4480EA020281EA030382EAB3
:100AF000000083EA010180EA020281EA0303362D45
:100B000088BF30BD11F0004F4FEA01314FF4801C17
:100B10004CEA113102D0404261EB410113F0004F29
:100B20004FEA03334CEA133302D0524263EB4303E0
:100B300094EA050F00F0A780A4F10104D5F1200E7E
:100B40000DDB02FA0EFC22FA05F2801841F10001D9
:100B500003FA0EF2801843FA05F359410EE0A5F1AD
:100B600020050EF1200E012A03FA0EFC28BF4CF0DE
:100B7000020C43FA05F3C01851EBE37101F0004594
:100B800007D54FF0000EDCF1000C7EEB00006EEBA1
:100B90000101B1F5801F1BD3B1F5001F0CD349082B
:100BA0005FEA30004FEA3C0C04F101044FEA445282
:100BB00012F5800F80F09A80BCF1004F08BF5FEA09
:100BC000500C50F1000041EB045141EA050130BDE9
:100BD0005FEA4C0C404141EB0101013C28BFB1F5FB
:100BE000801FE9D291F0000F04BF01460020B1FA46
:100BF00081F308BF2033A3F10B03B3F120020CDA19
:100C00000C3208DD02F1140CC2F10C0201FA0CF0F6
:100C100021FA02F10CE002F11402D8BFC2F1200C5B
:100C200001FA02F120FA0CFCDCBF41EA0C01904011
:100C3000E41AA2BF01EB0451294330BD6FEA04045A
:100C40001F3C1CDA0C340EDC04F11404C4F1200245
:100C500020FA04F001FA02F340EA030021FA04F357
:100C600045EA030130BDC4F10C04C4F1200220FAAE
:100C700002F001FA04F340EA0300294630BD21FAEC
:100C800004F0294630BD94F0000F83F4801306BFB2
:100C900081F480110134013D4EE77FEA645C18BFA6
:100CA0007FEA655C29D094EA050F08BF90EA020F3D
:100CB00005D054EA000C04BF1946104630BD91EA35
:100CC000030F1EBF0021002030BD5FEA545C05D138
:100CD0004000494128BF41F0004130BD14F5800477
:100CE0003CBF01F5801130BD01F0004545F0FE41EB
:100CF00041F470014FF0000030BD7FEA645C1ABF20
:100D0000194610467FEA655C1CBF0B46024650EA56
:100D1000013406BF52EA033591EA030F41F4002182
:100D200030BD00BF90F0000F04BF0021704730B508
:100D30004FF4806404F132044FF000054FF00001DD
:100D400050E700BF90F0000F04BF0021704730B59E
:100D50004FF4806404F1320410F0004548BF404273
:100D60004FF000013EE700BF42004FEAE2014FEAC8
:100D700031014FEA02701FBF12F07F4393F07F4FA3
:100D800081F06051704732F07F4208BF704793F0A6
:100D90007F4F04BF41F40021704730B54FF46074B9
:100DA00001F0004521F000411CE700BF50EA0102BC
:100DB00008BF704730B54FF000050AE050EA010265
:100DC00008BF704730B511F0004502D5404261EBD5
:100DD00041014FF4806404F132045FEA915C3FF416
:100DE000D8AE4FF003025FEADC0C18BF03325FEAB3
:100DF000DC0C18BF033202EBDC02C2F1200300FA64
:100E000003FC20FA02F001FA03FE40EA0E0021FA88
:100E100002F11444BDE600BF70B54FF0FF0C4CF476
:100E2000E06C1CEA11541DBF1CEA135594EA0C0F28
:100E300095EA0C0F00F0DEF82C4481EA030621EA63
:100E40004C5123EA4C5350EA013518BF52EA03359E
:100E500041F4801143F4801338D0A0FB02CE4FF050
:100E60000005E1FB02E506F00042E0FB03E54FF080
:100E70000006E1FB03569CF0000F18BF4EF0010E78
:100E8000A4F1FF04B6F5007F64F5407404D25FEA74
:100E90004E0E6D4146EB060642EAC62141EA555127
:100EA0004FEAC52040EA5E504FEACE2EB4F1FD0C69
:100EB00088BFBCF5E06F1ED8BEF1004F08BF5FEAE7
:100EC000500E50F1000041EB045170BD06F0004699
:100ED00046EA010140EA020081EA0301B4EB5C0446
:100EE000C2BFD4EB0C0541EA045170BD41F480113E
:100EF0004FF0000E013C00F3AB8014F1360FDEBF63
:100F0000002001F0004170BDC4F10004203C35DA3E
:100F10000C341BDC04F11404C4F1200500FA05F3C1
:100F200020FA04F001FA05F240EA020001F0004262
:100F300021F0004110EBD37021FA04F642EB0601D8
:100F40005EEA430E08BF20EAD37070BDC4F10C0402
:100F5000C4F1200500FA04F320FA05F001FA04F2C6
:100F600040EA020001F0004110EBD37041F10001B2
:100F70005EEA430E08BF20EAD37070BDC4F12005BD
:100F800000FA05F24EEA020E20FA04F301FA05F225
:100F900043EA020321FA04F001F0004121FA04F2CD
:100FA00020EA020000EBD3705EEA430E08BF20EA9D
:100FB000D37070BD94F0000F0FD101F000464000D7
:100FC00041EB010111F4801F08BF013CF7D041EA59
:100FD000060195F0000F18BF704703F0004652005D
:100FE00043EB030313F4801F08BF013DF7D043EA2E
:100FF0000603704794EA0C0F0CEA135518BF95EAE4
:101000000C0F0CD050EA410618BF52EA4306D1D16A
:1010100081EA030101F000414FF0000070BD50EA89
:10102000410606BF1046194652EA430619D094EA13
:101030000C0F02D150EA013613D195EA0C0F05D1FD
:1010400052EA03361CBF104619460AD181EA030151
:1010500001F0004141F0FE4141F470014FF0000009
:1010600070BD41F0FE4141F4780170BD70B54FF0A4
:10107000FF0C4CF4E06C1CEA11541DBF1CEA135524
:1010800094EA0C0F95EA0C0F00F0A7F8A4EB050406
:1010900081EA030E52EA03354FEA013100F08880FD
:1010A0004FEA03334FF0805545EA131343EA1263C6
:1010B0004FEA022245EA111545EA10654FEA00267B
:1010C0000EF000419D4208BF964244F1FD0404F534
:1010D000407402D25B084FEA3202B61A65EB030590
:1010E0005B084FEA32024FF480104FF4002CB6EB4D
:1010F000020E75EB030E22BFB61A754640EA0C00CD
:101100005B084FEA3202B6EB020E75EB030E22BF0C
:10111000B61A754640EA5C005B084FEA3202B6EB4D
:10112000020E75EB030E22BFB61A754640EA9C000C
:101130005B084FEA3202B6EB020E75EB030E22BFDC
:10114000B61A754640EADC0055EA060E18D04FEA9A
:10115000051545EA16754FEA06164FEAC30343EA3A
:1011600052734FEAC2025FEA1C1CC0D111F4801F07
:101170000BD141EA00014FF000004FF0004CB6E700
:1011800011F4801F04BF01430020B4F1FD0C88BF9F
:10119000BCF5E06F3FF6AFAEB5EB030C04BFB6EBAA
:1011A000020C5FEA500C50F1000041EB045170BD9D
:1011B0000EF0004E4EEA113114EB5C04C2BFD4EBCA
:1011C0000C0541EA045170BD41F480114FF0000E4E
:1011D000013C90E645EA060E8DE60CEA135594EACA
:1011E0000C0F08BF95EA0C0F3FF43BAF94EA0C0FCD
:1011F0000AD150EA01347FF434AF95EA0C0F7FF442
:1012000025AF104619462CE795EA0C0F06D152EA95
:1012100003353FF4FDAE1046194622E750EA410679
:1012200018BF52EA43067FF4C5AE50EA41047FF48A
:101230000DAF52EA43057FF4EBAE12E74FF0FF3CEF
:1012400006E000BF4FF0010C02E000BF4FF0010CC0
:101250004DF804CD4FEA410C7FEA6C5C4FEA430C39
:1012600018BF7FEA6C5C1BD001B050EA410C0CBF88
:1012700052EA430C91EA030F02BF90EA020F0020EA
:10128000704710F1000F91EA030F58BF994208BF51
:1012900090422CBFD8176FEAE37040F0010070470E
:1012A0004FEA410C7FEA6C5C02D150EA013C07D165
:1012B0004FEA430C7FEA6C5CD6D152EA033CD3D0B0
:1012C0005DF8040B704700BF8446104662468C46AA
:1012D0001946634600E000BF01B5FFF7B7FF0028DD
:1012E00048BF10F1000F01BD4DF808EDFFF7F4FF06
:1012F0000CBF012000205DF808FB00BF4DF808ED91
:10130000FFF7EAFF34BF012000205DF808FB00BFB3
:101310004DF808EDFFF7E0FF94BF012000205DF8D5
:1013200008FB00BF4DF808EDFFF7CEFF94BF01208A
:1013300000205DF808FB00BF4DF808EDFFF7C4FF83
:1013400034BF012000205DF808FB00BF4FEA410CCC
:101350007FEA6C5C02D150EA013C0AD14FEA430CAF
:101360007FEA6C5C02D152EA033C02D14FF00000EC
:1013700070474FF0010070474FEA410212F500122A
:1013800015D211D56FF47873B3EB625212D94FEACC
:10139000C12343F0004343EA505311F0004F23FAB6
:1013A00002F018BF404270474FF00000704750EA0B
:1013B000013005D111F0004008BF6FF000407047C8
:1013C0004FF00000704700BF4A0011D212F5001222
:1013D00011D20DD56FF47873B3EB62520ED44FEA8D
:1013E000C12343F0004343EA505323FA02F070470D
:1013F0004FF00000704750EA013002D14FF0FF304B
:1014000070474FF0000070474FEA4102B2F1E043ED
:1014100024BFB3F5001CDCF1FE5C0DD901F0004CDB
:101420004FEAC0024CEA5070B2F1004F40EB83002B
:1014300008BF20F00100704711F0804F21D113F157
:101440003872BCBF01F00040704741F480114FEA90
:101450005252C2F11802C2F1200C10FA0CF320FA19
:1014600002F018BF40F001004FEAC1234FEAD32336
:1014700003FA0CFC40EA0C0023FA02F34FEA4303A0
:10148000CCE77FEA625307D150EA01331EBF4FF029
:10149000FE4040F44000704701F0004040F0FE4044
:1014A00040F40000704700BF53B94AB9002908BF93
:1014B00000281CBF4FF0FF314FF0FF3000F0AAB9F9
:1014C000ADF1080C6DE904CE00F03CF8DDF804E065
:1014D000DDE9022304B0704738B50022002304463A
:1014E0000D46FFF70BFF28B920462946BDE83840D6
:1014F00000F00AB8204605F1004100F005F840422E
:1015000061EB410138BD00BFD0B50C4B002206464F
:101510000F46FFF781FCFFF757FF0446FFF702FC79
:10152000074B0022FFF778FC02460B46304639464F
:10153000FFF7BAFAFFF748FF2146D0BD0000F03DA3
:101540000000F0412DE9F047089D04468E46002B2F
:101550004DD18A42944669D9B2FA82F252B101FA67
:1015600002F3C2F1200120FA01F10CFA02FC41EA77
:10157000030E94404FEA1C48210CBEFBF8F61FFAFC
:101580008CF708FB16E341EA034306FB07F1994297
:101590000AD91CEB030306F1FF3080F01F8199424A
:1015A00040F21C81023E63445B1AA4B2B3FBF8F024
:1015B00008FB103344EA034400FB07F7A7420AD9AB
:1015C0001CEB040400F1FF3380F00A81A74240F2D3
:1015D00007816444023840EA0640E41B00261DB13E
:1015E000D4400023C5E900433146BDE8F0878B4273
:1015F00009D9002D00F0EF800026C5E90001304632
:101600003146BDE8F087B3FA83F6002E4AD18B420B
:1016100002D3824200F2F980841A61EB03030120B5
:101620009E46002DE0D0C5E9004EDDE702B9FFDEA1
:10163000B2FA82F2002A40F09280A1EB0C014FEA4C
:101640001C471FFA8CFE0126200CB1FBF7F307FBA9
:10165000131140EA01410EFB03F0884208D91CEB4C
:10166000010103F1FF3802D2884200F2CB804346E9
:10167000091AA4B2B1FBF7F007FB101144EA0144C8
:101680000EFB00FEA64508D91CEB040400F1FF3157
:1016900002D2A64500F2BB800846A4EB0E0440EA45
:1016A00003409CE7C6F12007B34022FA07FC4CEA4E
:1016B000030C20FA07F401FA06F31C43F9404FEA41
:1016C0001C4900FA06F3B1FBF9F8200C1FFA8CFE56
:1016D00009FB181140EA014108FB0EF0884202FAAA
:1016E00006F20BD91CEB010108F1FF3A80F088806B
:1016F000884240F28580A8F102086144091AA4B228
:10170000B1FBF9F009FB101144EA014100FB0EFEA8
:101710008E4508D91CEB010100F1FF346CD28E45D7
:101720006AD90238614440EA0840A0FB0294A1EB68
:101730000E01A142C846A64656D353D05DB1B3EBC5
:10174000080261EB0E0101FA07F722FA06F3F140F5
:101750001F43C5E9007100263146BDE8F087C2F19C
:101760002003D8400CFA02FC21FA03F39140014314
:101770004FEA1C471FFA8CFEB3FBF7F007FB10364D
:101780000B0C43EA064300FB0EF69E4204FA02F4F9
:1017900008D91CEB030300F1FF382FD29E422DD94C
:1017A000023863449B1B89B2B3FBF7F607FB163381
:1017B00041EA034106FB0EF38B4208D91CEB010101
:1017C00006F1FF3816D28B4214D9023E6144C91A81
:1017D00046EA004638E72E46284605E70646E3E691
:1017E0001846F8E64B45A9D2B9EB020864EB0C0E9B
:1017F0000138A3E74646EAE7204694E74046D1E7AA
:10180000D0467BE7023B614432E7304609E7644457
:10181000023842E7704700BF80B485B000AF7860FF
:101820000B467B800023FB6000237B8100237B81B0
:101830000AE07B897A6813441B781A46FB681344D4
:10184000FB607B8901337B817A897B88043B9A42E8
:10185000EFDBFB680133FB60FB6818461437BD46BD
:101860005DF8047B7047000090B585B004AF0C2292
:1018700000212D4812F060FF4FF47A7302930C237D
:101880000193294B009302230022A02127480CF04A
:1018900023FD0346002B04D00121082000F018FB93
:1018A00003E00021082000F013FB1F4B9C680C2173
:1018B0001D48FFF7B1FF03469C4231D00C220021A6
:1018C000194812F039FF4FF47A7302930C230193F5
:1018D000154B009302231022A02114480CF0FCFCAD
:1018E0000346002B04D00121082000F0F1FA03E0A8
:1018F0000021082000F0ECFA0B4B9C680C210A48F0
:10190000FFF78AFF03469C420AD00C2200210648BA
:1019100012F012FF044B00221A60034B00225A609F
:1019200000BF0437BD4690BDDC1300207C2A002098
:1019300080B584B004AF22480DF0BEFF0C212148D1
:10194000FFF76AFF03461F4A93604FF47A730293CE
:101950000C2301931B4B009302230022A0211A4861
:101960000CF098FB0346002B04D00121082000F066
:10197000AFFA03E00021082000F0AAFA10480DF0A9
:101980009BFF062007F0BCFC4FF47A7302930C23F4
:1019900001930C4B009302231022A0210A480CF063
:1019A00079FB0346002B04D00121082000F090FAB7
:1019B00003E00021082000F08BFA00BFBD4680BD87
:1019C000D02A0020DC1300207C2A002080B586B0BD
:1019D00000AF3B4600221A605A609A60DA601A61D2
:1019E0005A613E4B3E4A1A603C4B00225A603B4BC8
:1019F00000229A60394B0022DA60384B01221A61CA
:101A0000364B04225A61354B00221A76334B0122A1
:101A10005A76324B0422DA61304B002283F82020C0
:101A20002E4B00229A622D4B0022DA622B4B0122B0
:101A300083F83020294B00225A63284B002283F878
:101A40003820264807F0B6FE0346002B01D002F0EE
:101A50007CFC244B3B6006237B600723BB607F2319
:101A6000FB6004233B6100237B613B4619461B4816
:101A700008F0DAFC0346002B01D002F066FC1A4B9A
:101A80003B600C237B603B461946144808F0CCFCB5
:101A90000346002B01D002F058FC144B3B6012238C
:101AA0007B603B4619460D4808F0BEFC0346002B00
:101AB00001D002F04AFC0E4B3B6018237B603B4692
:101AC0001946064808F0B0FC0346002B01D002F08E
:101AD0003CFC00BF1837BD4680BD00BFE8130020A6
:101AE000000004500002B0250004002A0008302E37
:101AF0000010603280B5A2B000AF786007F17403C7
:101B000000221A605A609A60DA601A6107F11403C1
:101B100060220021184612F00FFE7B681B683F4AC6
:101B2000934276D14FF480437B614FF08053BB6684
:101B30000323BB610523FB610D233B6207237B620B
:101B40000223BB620223FB624FF080733B6307F109
:101B5000140318460EF008FF0346002B01D002F0D4
:101B6000F4FB2F4BDB6C2E4A43F40053D3642C4B15
:101B7000DB6C03F400533B613B69294BDB6C284A67
:101B800043F00103D364264BDB6C03F00103FB60DD
:101B9000FB68F0237B670B23BB670023FB6707F120
:101BA000740319464FF090400BF0B2FD1D4B1E4AD6
:101BB0001A601C4B00225A601A4B00229A60194B83
:101BC0000022DA60174B80221A61164B4FF4007224
:101BD0005A61144B4FF400629A61124B2022DA6171
:101BE000104B00221A620F480AF0A6FE0346002B93
:101BF00001D002F0AAFB7B680A4ADA64094A7B68D2
:101C000093620022062112200AF02EFE12200AF012
:101C100057FE00BF8837BD4680BD00BF000004509E
:101C2000001002404C1400200800024080B500AFB4
:101C3000174B184A1A60164B0A225A60144B00229E
:101C40009A60134B0022DA60114B4FF440221A6164
:101C50000F4B4FF480125A610D4B00221A760C4B39
:101C600001225A760A4B01229A76094B0022DA7633
:101C7000074B00221A77064B00225A77044809F0D6
:101C800011FC0346002B01D002F05FFB00BF80BDBA
:101C9000941400200064004080B58AB000AF7860E2
:101CA00007F1140300221A605A609A60DA601A6120
:101CB0007B681B68274A934248D1274B9B6D264A75
:101CC00043F000739365244B9B6D03F000733B61FD
:101CD0003B69214BDB6C204A43F00203D3641E4B6B
:101CE000DB6C03F00203FB60FB684FF440737B6125
:101CF0000223BB610023FB6103233B6209237B6258
:101D000007F11403194615480BF002FD00220121CA
:101D100013200AF0A9FD13200AF0D2FD00220121B0
:101D200014200AF0A1FD14200AF0CAFD00220121AE
:101D300015200AF099FD15200AF0C2FD00220121AC
:101D400016200AF091FD16200AF0BAFD00BF2837D0
:101D5000BD4680BD00640040001002400004004801
:101D600080B582B000AF78607B681B680E4A9342F2
:101D700016D10E4B9B6D0D4A23F0007393654FF403
:101D800040710B480BF00CFF13200AF0B1FD14203A
:101D90000AF0AEFD15200AF0ABFD16200AF0A8FDF2
:101DA00000BF0837BD4680BD0064004000100240FF
:101DB00000040048B0B584B000AF2D4B1B682D4A1D
:101DC00013600023FB600023BB6000237B60284B73
:101DD0001B68FB60284B1B68BB60284B1B687B6043
:101DE0007B680A222649184612F086FC24492548B9
:101DF00013F096FCBB680A222149184612F07CFCBD
:101E00001F49204813F08CFCFB680A221C49184625
:101E100012F072FC1A491B4813F082FC3C2200218C
:101E2000194812F089FC184B184A118892781980C9
:101E30009A701449144813F073FC1348FEF7D2FD4E
:101E400003461A46104B1344114A1D4614460FCC44
:101E500028606960AA60EB6003CC2861696123880F
:101E6000A2782B831346AB7600BF1037BD46B0BDBA
:101E70009075FF1FBC1400209475FF1F9875FF1FFD
:101E80003400002000000020EC140020D8A101083C
:101E9000DCA1010880B582B000AF0C4B9B6C0B4AF3
:101EA00043F001039364094B9B6C03F001037B60D7
:101EB0007B68002206210B200AF0D6FC0B200AF0DA
:101EC000FFFC00BF0837BD4680BD00BF00100240C8
:101ED00080B483B000AF03460A46FB711346BB7162
:101EE000FB79092B26D801A252F823F0151F000810
:101EF000351F0008351F0008351F0008351F000872
:101F0000351F0008351F00081D1F0008251F000889
:101F10002D1F0008BB790B4A13600CE0BB79094AFE
:101F2000D36108E0BB79074A136204E0BB79054A34
:101F3000536200E000BF00BF0C37BD465DF8047B74
:101F4000704700BFC014002080B58AB000AF07F111
:101F5000140300221A605A609A60DA601A61414BD9
:101F6000DB6C404A43F00403D3643E4BDB6C03F06C
:101F700004033B613B693B4BDB6C3A4A43F0800313
:101F8000D364384BDB6C03F08003FB60FB68354B9C
:101F9000DB6C344A43F00103D364324BDB6C03F057
:101FA0000103BB60BB682F4BDB6C2E4A43F002037E
:101FB000D3642C4BDB6C03F002037B607B68002254
:101FC0004FF4005128480BF0F3FE002241F20D01BE
:101FD00026480BF0EDFE00224FF400414FF09040F8
:101FE0000BF0E6FE4FF400537B610123BB6100233D
:101FF000FB6100233B6207F1140319461A480BF0FA
:1020000087FB41F20D037B610123BB610023FB6170
:1020100000233B6207F11403194614480BF078FBC8
:102020004FF400437B610123BB610023FB6100236C
:102030003B6207F1140319464FF090400BF068FB28
:1020400010237B614FF48813BB610023FB6107F110
:102050001403194605480BF05BFB00BF2837BD464B
:1020600080BD00BF00100240000800480004004886
:1020700080B483B000AF78607B68DB6903F08003D5
:10208000802B01D1012300E0002318460C37BD4608
:102090005DF8047B704780B483B000AF78600B4676
:1020A000FB70FB789AB27B681A8500BF0C37BD467F
:1020B0005DF8047B70470000B0B500AF96220021A8
:1020C000C34812F039FB23220021C24812F034FB2E
:1020D0000A220021C04812F02FFB40F68C2200217A
:1020E000BE4812F029FB4FF461723F21BC4812F048
:1020F00023FB08223F21BB4812F01EFB0D223F218B
:10210000B94812F019FB4FF448720021B74812F099
:1021100013FB03220021B64812F00EFBB42200216B
:10212000B44812F009FBB4220021B34812F004FBBA
:10213000B4220021B14812F0FFFAB149AD4813F0C2
:10214000EFFAAC48FEF74EFC03461A46A94B13447F
:10215000AC491A460B461B881380AB49A54813F0BF
:10216000DFFAA448FEF73EFC03461A46A14B13448F
:10217000A4491A460B461B8813809E48FEF732FC82
:1021800003461A469B4B1344A0491A460B4603CB01
:102190001060516019889B7811819372964A9C4B0C
:1021A00014461D460FCD0FC40FCD0FC40FCD0FC465
:1021B00095E80F0007C4238002341B0C23708E485F
:1021C000FEF710FC03461A468B4B1344914A1188C4
:1021D000927819809A70642200218F4812F0ACFA2C
:1021E0008E498D4813F09CFA8B48FEF7FBFB0346A3
:1021F0001A46894B134483491A460B461B881380A1
:102200008548FEF7EFFB03461A46834B1344844A86
:102210001D4614460FCC28606960AA60EB6003CCB1
:10222000286169617C48FEF7DDFB03461A467A4B5C
:10223000134474491A460B461B8813807648FEF7F0
:10224000D1FB03461A46744B134476491A460B4693
:102250001B8813807048FEF7C5FB03461A466E4B79
:102260001344714A1068186012791A716A48FEF7AF
:10227000B9FB03461A46684B1344664A11889278A4
:1022800019809A7096220021684812F055FA684920
:10229000664813F045FA6548FEF7A4FB03461A4664
:1022A000624B134457491A460B461B8813806149F9
:1022B000614813F051FA60495C4813F031FA5B4809
:1022C000FEF790FB03461A46584B13445B4A1068CE
:1022D00018605648FEF786FB03461A46534B1344D4
:1022E000564A106818605148FEF77CFB03461A46B0
:1022F0004E4B1344524A10681860C82200215148BE
:1023000012F01AFA50494F4813F00AFA4D48FEF7F6
:1023100069FB03461A464B4B13443A491A460B468F
:102320001B8813804748FEF75DFB03461A46454B62
:102330001344464A1D4614460FCC28606960AA60C3
:10234000EB60206828613F48FEF74CFB03461A46C5
:102350003C4B13443E4A1068186092889A80274884
:10236000FEF740FB03461A46244B1344294A1188C2
:10237000927819809A70164B03F58053002283F8E7
:10238000DE22134B002283F8AE2F114B002283F87C
:10239000B02F0F4B002283F8862F0D4B0022C3F87D
:1023A000A82F0B4B002283F8842F094B002283F8BF
:1023B000832F074B052283F8852F054B002283F8D6
:1023C000882F034B4FF47A72C3F8902F214B43E0D0
:1023D0000C1700204218002038180020031C002091
:1023E00065180020E91B0020BD260020CA26002019
:1023F000F11B002010030020C403002078040020FB
:102400002802002098A201084C0700209CA2010885
:10241000A8A20108E8A201086805002058050020CC
:1024200060AA0108ECA2010878AA0108DC050020D6
:10243000CC05002000000020A4160020F0A2010816
:10244000F4A201088406002074060020D8AA01081E
:10245000F8A20108784C00201C4A1A601C4B00228C
:10246000C3F89C2F1A4B002283F88A2F184B0022A6
:1024700083F8AC2F164B012283F8AF2F144B0122A7
:1024800083F8AD2F134B4FF4FA721A60124B0122EE
:102490001A70124B00221A7000224FF400414FF0C4
:1024A00090400BF085FC0E4B00221A700D4B002261
:1024B0001A600D4B1B7843F04003DAB20A4B1A70D6
:1024C0000A4B00221A7000BFB0BD00BF20BF02003F
:1024D0000C1700207C4C00204D2A0020E02A002010
:1024E000D6160020482A0020E32A0020E12A0020F6
:1024F00090B5ADF5965D85B041F2D0276F44B74BEE
:10250000D3F8903F002B40F0A581B44B93F8AE3F39
:10251000DBB2092B03D9B14B002283F8AE2FAF4BAE
:1025200093F8AE3FDBB2092B00F28C8101A252F886
:1025300023F000BF5D250008ED250008F9260008FE
:102540001527000879260008B92600085D2600082E
:102550001128000817280008332800089F4B93F81B
:10256000B03F002B0FD101224FF400519C480BF0DB
:102570001FFC9A4B41F65832C3F8902F974B01221B
:1025800083F8B02F27E0954B93F8B03F012B13D180
:1025900000224FF4005192480BF00AFC8F4B4FF48D
:1025A0007A62C3F8902F8D4B012283F8AE2F8B4BAC
:1025B000022283F8B02F0EE0884B93F8B03F022B35
:1025C00009D1864B93F8AE3FDBB2002B03D1834B8E
:1025D000002283F8B02F814B93F8B03F022B40F2DA
:1025E00034817E4B002283F8B02F2EE17B4B93F891
:1025F000AD3FDBB2052B02D1FFF75EFD26E1774B45
:1026000093F8AF3F192B1BD1764B1B78012B0ED1C2
:10261000724B142283F8AF2F704B022283F8AE2F37
:10262000714B01221A706F4B00221A700EE16B4B36
:10263000142283F8AF2F694B022283F8AE2F05E1F5
:10264000664C684604F1100341F2D022194612F09C
:1026500065F894E80F0000F007F9F7E05F4C684672
:1026600004F1100341F2D022194612F057F894E811
:102670000F0000F0F9F8E9E05B4B1B78012B0DD15E
:10268000564C684604F1100341F2D022194612F06C
:1026900045F894E80F0000F0E7F8D7E04F4B14221C
:1026A00083F8AF2F4D4B022283F8AE2F4B4B4FF4E4
:1026B000FA62C3F8902FC9E04C4B1B78012B0DD167
:1026C000464C684604F1100341F2D022194612F03C
:1026D00025F894E80F0000F0C7F8B7E03F4B14224C
:1026E00083F8AF2F3D4B022283F8AE2F3B4B4FF4C4
:1026F000FA62C3F8902FA9E0384C684604F1100341
:1027000041F2D022194612F009F894E80F0000F0C7
:10271000ABF89BE0364803F038FC0346002B07D1AA
:10272000334B5B68324A023352F82330002B0DD111
:10273000304803F0F9FC0346002B5FD12D4B5B685A
:102740002C4A023352F82330002B57D02A4B1B78E7
:10275000002B0AD1214B93F8AF3F202B05D100F07D
:10276000A9FF254B01221A7036E0234B1B78012B61
:1027700008D11A4B93F8AF3F222B03D11E4B0022F6
:102780001A7029E01C4B1B78002B0AD1134B93F8CD
:10279000AF3F192B05D100F08DFF174B01221A70A6
:1027A0001AE0154B1B78012B08D10C4B93F8AF3F67
:1027B000222B03D1104B00221A700DE0074C684603
:1027C00004F1100341F2D022194611F0A7FF94E85A
:1027D0000F0000F049F81AE019E000BF0C170020C4
:1027E0000008004841150020D8160020D716002008
:1027F000182A0020EC29002040150020174B142235
:1028000083F8AF2F154B022283F8AE2F1EE01DE098
:10281000FFF752FC1AE0114C684604F1100341F234
:10282000D022194611F07AFF94E80F0000F01CF84E
:102830000CE00A4B032283F8AE2F084B192283F8D1
:10284000AF2F03E0FFF738FC00E000BF044B054A60
:102850001A6000E000BF0437BD4690BD0C17002091
:10286000784C002020BF020090B591B000AF9B4B88
:1028700093F8AC3FDBB2002B04D0012B00F0E580D5
:1028800000F000BF954B93F8AD3FDBB2012B40F059
:102890008380934B00221A60904B93F8AF3F222B1A
:1028A00028D1904B1B78012B08D18F4B5B688E4A47
:1028B000023352F823308D4A13600BE0894B1B78AA
:1028C000022B07D18A4B5B68894A023352F82330C6
:1028D000864A1360854B1B68002B07D0834B1B680F
:1028E0001846FEF77FF80346132B3AD87F4B814AF0
:1028F0001A6036E0794B93F8AF3F1A2B28D1794B09
:102900001B78012B08D1784B5B68774A023352F869
:102910002330764A13600BE0724B1B78022B07D1F1
:10292000734B5B68724A023352F823306F4A13606C
:102930006E4B1B68002B07D06C4B1B681846FEF7CC
:1029400051F80346132B0CD8684B6A4A1A6008E00A
:10295000624B93F8AF3F684A1B0113441B68634AFC
:102960001360624B1B681846FEF73CF80346634A47
:1029700013605E4B1A685A4B1B68591C584801601B
:1029800013441B7819465E48FFF785FB534B022220
:1029900083F8AD2F00F073BE504B93F8AD3FDBB220
:1029A000022B4ED15648FFF763FB0346002B00F085
:1029B00066864B4B1A68514B1B689A420ED24B4BA2
:1029C0001A68474B1B68591C4548016013441B7823
:1029D00019464B48FFF75FFB00F051BE404B002209
:1029E0001A60484B4FF4FA721A60444B00221A6086
:1029F0003A4B012283F8AC2F384B93F8AF3F3E4A55
:102A00001B01134408331B68344AC2F8A43F334BFC
:102A100093F8AF3F1D2B09D0304B93F8AF3F1E2BDF
:102A200004D02E4B93F8AF3F1F2B05D1364B43F606
:102A300098221A6000F023BE334B00221A6000F087
:102A40001EBEFFF739FB00F01ABE2E4B1B68002B91
:102A500040F0D485214BD3F8A43F002B00F0CE8565
:102A60002A4B1B68012B40F0C985274B1B68002BA4
:102A700040F0C4852649274812F09DFE38633B6B21
:102A8000002B51D02449234812F095FEF862FB6ACE
:102A9000002B1FD021491F4812F08DFE0346002B4A
:102AA00014D0FA6A3B6BD31ABB62962200211C48F1
:102AB00011F042FE3B6B591EBB6A03331A4618489D
:102AC00011F02CFE174B01221A7030E0154B00223A
:102AD0001A702CE0134B00221A7028E00C1700200B
:102AE000702A002028150020182A0020742A0020AF
:102AF000EC290020EC140020ECAA0108782A002020
:102B0000003801405C4C0020744C00203C2B00201D
:102B100000A30108031C002004A3010800000020FA
:102B20005800002029150020BB4B00221A70BB4B17
:102B300093F8AF3FBA4A1B01134404331B6819468C
:102B4000B84812F038FE0346002B00F04585B34B21
:102B500093F8AF3F222B00F2FB8401A252F823F03E
:102B6000ED2B0008F92B0008572C0008632C0008F7
:102B70003F2D0008BF2C0008052C0008752D00080B
:102B8000B52D0008BF2D0008C92D0008D32D000861
:102B9000DD2D000851350008E72D0008F12D000853
:102BA000F92D0008032E00080D2E000851350008ED
:102BB0006D2E00082D300008373000084130000825
:102BC0004B3000080F2F00085B300008FF32000870
:102BD0005135000809330008D13300085D3400087E
:102BE000192F0008492F00083F2F00088B4B0122A6
:102BF00083F8892F00F0B7BC884B012283F8892F16
:102C000000F0B1BC8849874812F0D5FDF8608748CC
:102C1000FDF7E8FE03461A460021844811F08CFDBA
:102C2000FB6803F10A04FB680A338149184613F074
:102C300009FC03461846FDF7D5FE03461A46214611
:102C40007A4811F06BFD00F0E5FE744B012283F829
:102C5000892F00F088BC714B012283F8892F00F086
:102C600082BC74496F4812F0A6FD38607248FDF7C7
:102C7000B9FE03461A4600216F4811F05DFD3B681E
:102C8000DC1D3B6807336D49184613F0DBFB034638
:102C90001846FDF7A7FE03461A462146664811F07E
:102CA0003DFD654811F0E1FC02460B466449C1E96F
:102CB00000235A4B012283F8892F00F054BC61494C
:102CC000584812F078FDB860BB689C1D5E49B86832
:102CD00013F0B8FB03461846FDF784FE03461A4678
:102CE00021465A4811F01AFD4C4BB3F82C21584B91
:102CF0001A80574811F0B5FC0346DAB2554B1A70EA
:102D0000464B93F8AE3FDBB2062B12D1434B41F258
:102D10008832C3F8902F414B032283F8AE2F3F4BEC
:102D2000192283F8AF2F3D4B002283F8892F00F042
:102D30001ABC3A4B012283F8892F00F014BC464993
:102D4000384812F038FD0346002B0ED02C213548B0
:102D500012F0F5FC78607B6801331B78302B04D1CE
:102D6000FFF7AAF93D4B01221A702C4B012283F880
:102D7000892FF8E33A492B4812F01DFD38610F22E4
:102D80000021384811F0D8FC3B6903F10A043649A8
:102D9000386913F057FB03461846FDF723FE034638
:102DA0001A4621462F4811F0B9FC1C4B012283F82A
:102DB000892FD8E3194B012283F8892FD3E3174BCE
:102DC000012283F8892FCEE3144B012283F8892F47
:102DD000C9E3124B012283F8892FC4E30F4B012270
:102DE00083F8892FBFE30D4B012283F8892FBAE3C3
:102DF0000A4B012283F8892F084B012283F8892F7F
:102E0000B1E3064B012283F8892FACE3034B012287
:102E100083F8892FA7E300BF291500200C17002095
:102E2000ECAA0108031C00202CA20108B007002016
:102E300008A3010814A20108C40F0020F4A201088D
:102E4000381500200CA3010814A30108381800202D
:102E5000502A0020522A002018A301084115002002
:102E600034A20108B40F0020ECA20108B049B14817
:102E700012F0A1FC786196220021AF4811F05CFCB1
:102E80007B69002B0DD0AD49786913F0DBFA03465E
:102E90001846FDF7A7FD03461A467969A64811F0C2
:102EA0003DFCA74B1B68012B24D1A64B1B68012BB3
:102EB00013D1A54803F069F80346012B0DD100F0AA
:102EC00067FF9D4B1B2283F8AF2F9B4B082283F893
:102ED000AE2F9E4B00221A7007E0974B052283F815
:102EE000AF2F954B062283F8AE2F934B002283F829
:102EF000892F35E3924B1B68002B40F031838E4BBA
:102F0000012283F8892F8E4B01221A6028E38A4B15
:102F1000012283F8892F26E38D49864812F04BFC65
:102F200038623B6A1A1D844B03F2E543118892789C
:102F300019809A70804B012283F8892F13E37E4B0E
:102F4000012283F8892F0EE381497A4812F033FC7D
:102F500078627B6A1A1D784B03F2E54311889278F8
:102F600019809A707B4811F07CFB0346C82B2AD14C
:102F7000794B1B78012B03D1734802F0A5FF06E0C3
:102F8000754B1B78022B02D1744803F06CF86A4B26
:102F90004FF4FA62C3F8902F714B00221A70664BFF
:102FA000192283F8AF2F644B202283F8AF2F624B96
:102FB000002283F8892F674811F053FB03461A4615
:102FC000684B1A6031E0634811F04BFB03461A4628
:102FD000644B1A60584B93F88A3F0133DAB2564B70
:102FE00083F88A2F544B93F88A3F042B05D9FFF7B7
:102FF00063F85D4B01221A7017E0564811F031FB5F
:1030000003461A46574B1A604B4B192283F8AF2FD1
:10301000494B202283F8AF2F474B0022C3F8A42F3F
:10302000454B002283F8892F00BF9CE2424B0122CE
:1030300083F8892F97E2404B012283F8892F92E28F
:103040003D4B012283F8892F8DE2484B01221A70F3
:10305000394B012283F8892F85E20023FB6300238B
:1030600087F83B300023FB631AE0334AFB6B1344C1
:1030700003F2F7431B78002B0CD12F4AFB6B134450
:1030800003F2F74321221A7097F83B30013387F897
:103090003B3002E0002387F83B30FB6B0133FB63DE
:1030A000FB6B40F68B22934203D897F83B30012B01
:1030B000DBD900237B632E491E4813F0C3F97863E4
:1030C00081E008222B49786B12F04EFB0346002B5F
:1030D0000AD10F220021284811F02EFB0D22796B16
:1030E000254811F01BFB69E003222449786B12F09C
:1030F0003BFB0346002B49D17B6B5C1D0F49786B72
:1031000012F059FB02467B6B0533D31A1A4621464F
:103110001B4811F003FB084BB3F82C21194B1A8004
:10312000184811F09EFA0346DAB2174B1A7045E0C0
:1031300020A30108031C00200C170020E8A20108AE
:10314000482A00202C150020182A002029150020CC
:1031500028A30108F11B002028150020EC290020DD
:1031600040150020DC16002041150020E12A002037
:103170002CA3010830A30108F41B00203CA3010884
:1031800038180020502A0020522A002009229D4988
:10319000786B12F0E9FA0346002B0FD17B6B03F139
:1031A0000B049949786B12F006FB02467B6B0B33DC
:1031B000D31A1A462146954812F0EAFA944900209B
:1031C00013F040F978637B6B002B7FF47AAF914961
:1031D0009148FDF7FDFB0346002B02D18F4B0122E6
:1031E0001A708E4B1B78012B5AD18C4B00221A700F
:1031F0008B4B01221A708B4B1B78012B03D18A4811
:1032000002F062FE06E0874B1B78022B02D1874852
:1032100002F029FF834B1B78022B20D1844B03F54E
:10322000805393F8183C002B19D0814B1B7D013B38
:10323000DAB27F4B1A757E4B1B7D002B0FD17C4B76
:1032400003F58053002283F8182C794B1B68794AC8
:103250005360774B5B68774A1360FEF769FB714BED
:1032600000221A70744B00221A70734B00221A70DD
:10327000664B4FF4FA62C3F8902F6F4B00221A701E
:10328000624B192283F8AF2F604B002283F8892FFD
:10329000614811F0E6F903461A46684B1A602DE0C2
:1032A0005D4811F0DEF903461A46644B1A60574B2D
:1032B00093F88A3F0133DAB2544B83F88A2F534B89
:1032C00093F88A3F042B05D9FEF7F6FE5C4B0122EA
:1032D0001A7013E0504811F0C4F903461A46574BD0
:1032E0001A604A4B192283F8AF2F484B0022C3F8CB
:1032F000A42F464B002283F8892F00BF33E1434BB4
:10330000012283F8892F2EE14E494F4812F053FADB
:10331000B861BB69002B4ED04C48FDF763FB0346F8
:103320001A460021494811F007FABB691C1DBB6908
:1033300004333549184613F085F803461846FDF75F
:1033400051FB03461A462146404811F0E7F93F4831
:10335000FDF748FB03463E4A13603C4811F081F9F3
:1033600003461A46294BC3F8A02F284BD3F8A03F99
:10337000B3F57A4F0ED8374B01221A70234BD3F88E
:10338000A03F002B12D0214BD3F8A03F184600F0ED
:103390002BFC0BE01D4B002283F8892F1B4B0322D3
:1033A00083F8AE2F194B192283F8AF2F174B012248
:1033B00083F8892FD7E0154B002283F8892F134B10
:1033C000032283F8AE2F114B192283F8AF2FCAE0E6
:1033D00021491D4812F0EFF9F861FB69002B04D078
:1033E0000A4B012283F8892FBDE0084B002283F8A5
:1033F000892F064B032283F8AE2F044B192283F842
:10340000AF2FB0E040A30108E8A201080C1700208C
:103410002CA301084CA30108F41B00204C2A002017
:10342000D616002028150020182A0020EC2900209C
:103430004C2B0020DC13002040150020E01600205B
:10344000411500205CA30108031C00209C0F0020F4
:1034500000170020E816002064A301088B4B1B789E
:10346000002B6DD04FF400414FF090400AF0D0FC9B
:10347000874B1B68002B2DD1864B1B68002B1DD161
:1034800005F0C8FA05F042FC03461946002005F095
:10349000C1FB0121804805F0CFFA03467F4A136043
:1034A0007E4B1B68012B10D17A4B01221A6040F62B
:1034B0008C2200217A4811F03FF906E0002176487D
:1034C00005F0BAFA0346754A1360764B002283F87A
:1034D000892F47E06E4B1B68012B43D16D4B1B6856
:1034E000002B01D105F096FA00216B4805F0A4FAF3
:1034F00003466A4A136005F009FC0346184605F0C6
:1035000023FC0346002B10D1604B00221A70614B44
:103510001B68012B02D15F4B00221A60002001F0D2
:1035200073FE614B01221A7006E000224FF4004145
:103530004FF090400AF03CFC564B01221A6011E01B
:1035400000224FF400414FF090400AF031FC09E0B6
:1035500000224FF400414FF090400AF029FC02E0B5
:1035600000BF00E000BF4F4B0022C3F8A82F4D4B17
:10357000012283F8AD2F4B4B002283F8AC2F494B2F
:10358000052283F8852F474B0022C3F8A42F474B11
:1035900000221A60434B0022C3F8A82F414B93F836
:1035A000AF3F1F2B05D040F68C2200213C4811F084
:1035B000C3F83C4B93F8893F012B5ED1394B4FF454
:1035C0007A72C3F8902F374B93F8AF3F0133DAB2DA
:1035D000344B83F8AF2F50E0324B0022C3F8A82FB2
:1035E000304B012283F8AC2F40F68C2200212C486E
:1035F00011F0A2F82D4B00221A603EE0294BD3F8BF
:10360000A43F002B3DD1274B93F8853F013BDAB215
:10361000244B83F8852F234B93F8853F002B11D142
:1036200040F68C2200211E4811F086F81D4B93F8BD
:10363000AE3FDBB2032B02D11D4B01221A70FEF705
:103640003BFD12E0174B012283F8AD2F154B0022F2
:1036500083F8AC2F40F68C220021114811F06CF851
:10366000104B4FF47A72C3F8902F0E4B0022C3F820
:10367000A42F0E4B00221A6003E000BF01E000BF40
:1036800000E000BF00BF4437BD4690BDE8160020F3
:10369000F8160020FC160020CC0700200817002098
:1036A000031C00200C170020301500203C2B0020AC
:1036B00041150020B0B588B000AF0023BB619A4827
:1036C00002F063FC0346002B13D1974B5B68964ACC
:1036D000023352F82330002B0BD0944B01221A7086
:1036E000914B5B68904A023352F82330904A136042
:1036F00018E0904802F018FD0346002B12D18D4BC4
:103700005B688C4A023352F82330002B0AD0874B77
:1037100002221A70874B5B68864A023352F82330C4
:10372000834A1360824B1B681846FDF75BF9F8610A
:10373000FB69002B03D18048FDF754F9F8610023A1
:103740003B603B1D00221A605A60C3F8072000232B
:103750007B6100233B610023FB7306220021774835
:1037600010F0EAFFFA220021754810F0E5FFFB692E
:103770000A227249184610F0BFFF714A714B144675
:103780001D460FCD0FC495E803002060043421705E
:103790006B48FDF727F903461A46694B13446A49FB
:1037A0001A460B461B881380614B1B685F21184625
:1037B00011F0C5FF78617B6901332C21184611F0A7
:1037C000BEFF38613A697B69D31AFB733B460F220F
:1037D0000021184610F0B0FF7B69591CFB7B013BB0
:1037E0001A463B46184610F099FF504B1B78012BA8
:1037F00064D13B4655491846FDF7EAF80346002BCD
:1038000012D14F48FDF7EEF803461A464C4B1344CD
:103810004F4A1D4614460FCC28606960AA60EB60D1
:1038200003CC28616961B2E03B464A491846FDF77E
:10383000CFF80346002B13D14148FDF7D3F80346D8
:103840001A463F4B1344444A1D4614460FCC286089
:103850006960AA60EB602068286123792B7596E087
:103860003B463E491846FDF7B3F80346002B11D1FD
:103870003348FDF7B7F803461A46314B1344384A2C
:103880001D4614460FCC28606960AA60EB6023785F
:103890002B747CE02A48FDF7A5F803461A46284B0E
:1038A00013442D4A1D4614460FCC28606960AA6057
:1038B000EB602068286123792B7568E01B4B1B782F
:1038C000022B51D10023BB61194B1B681F491846BD
:1038D00011F071FFB861BB69002B11D11848FDF7D9
:1038E00081F803461A46164B13441E4A1D461446D9
:1038F0000FCC28606960AA60EB602068286146E010
:103900000F48FDF76FF803461A460D4B1344104A53
:103910001D4614460FCC28606960AA60EB6003CC9A
:103920002861696133E000BF182A002028150020B3
:1039300054000020EC290020EC140020A40F0020EB
:10394000441500206CA3010898A2010884A3010873
:1039500098AA010890A3010880AA010898A3010869
:10396000B0AA0108C4AA01082448FDF73BF80346A1
:103970001A46224B1344224A1D4614460FCC286097
:103980006960AA60EB602068286123792B751B4869
:10399000FDF728F803461A46184B1344194A1188B4
:1039A000927819809A701849144811F0B9FE13489A
:1039B000FDF718F803461A46104B1344134A1C46E9
:1039C00015460FCD20606160A260E3602868206129
:1039D000AB88AA79A3821346A3750848FDF702F8BD
:1039E00003461A46054B1344094A118892781980F8
:1039F0009A7000BF2037BD46B0BD00BF44150020FF
:103A000080AA01089CA30108A40F0020A0A301081C
:103A1000E8A2010880B500AF654B1B68012B00F0E0
:103A2000C580644B1B78303BDBB21A4692001344CE
:103A30005B00DAB25F4B5B781344DBB2303BDAB247
:103A40005D4B1A705B4B1B78A3F1300213469B0051
:103A500013445B001A46574B5B78303B13441A46BD
:103A6000564B1A60534BDB78A3F1300213469B0090
:103A700013445B001A464F4B1B79303B13441A46E4
:103A80004F4B1A604B4B9B79A3F1300213469B00BE
:103A900013445B001A46474BDB79303B13441A460C
:103AA000484B1A60434B5B7AA3F1300213469B00EC
:103AB00013445B001A463F4B9B7A303B13441A4633
:103AC000414B1A603B4B1B7BA3F1300213469B001A
:103AD00013445B001A46374B5B7B303B13441A465A
:103AE0003A4B1A60334BDB7BA3F1300213469B0049
:103AF00013445B001A462F4B1B7C303B13441A4681
:103B0000334B1A602D4B1B68184605F035FA0346F7
:103B1000DAB2304BDA702A4B1B68184605F02CFAE3
:103B20000346DAB22B4B5A70264B1B68184605F039
:103B300023FA0346DAB2274B9A70234B1B681846C8
:103B400005F01AFA0346DAB2234B1A701F4B1B68B2
:103B5000184605F011FA0346DAB21F4B5A701C4B97
:103B60001B68184605F008FA0346DAB21A4B9A7039
:103B70001A4B184A10681860134B1B68184A1360D8
:103B8000124B1B68164A5360114B1B68144A936012
:103B90000122114913480DF00BFD01220D49114876
:103BA0000DF0BCFE024B01221A6000E000BF80BD98
:103BB000584C0020B0070020582A0020542A00202A
:103BC0005C2A0020602A0020642A0020682A002045
:103BD0006C2A0020244C0020104C0020E416002009
:103BE000284C0020182B0020B0B582B000AF7860C0
:103BF0007B68002B00F0AC80584B1B68002B1FD15A
:103C00007B68574AA2FB0323DB09564A13607A6894
:103C1000534BA3FB0213DB094FF4FA6101FB03F3DF
:103C2000D31A514A13600A2250494FF4FA6010F037
:103C300063FD4D4B1B680A224D49184610F05CFD90
:103C40004C4A4D4B14461D460FCD0FC42B682380A4
:103C500006220021494810F06FFD404B1A68414B85
:103C60001B689A4236D23D4B1B684FF4FA6202FB46
:103C700003F30A224149184610F03EFD3F493D48F2
:103C800011F04EFD3B48FCF7ADFE03461A46394B9A
:103C900013443B491A460B461B8813803349354869
:103CA00011F03EFD3348FCF79DFE03461A46314BAA
:103CB0001344344A1188927819809A70274B1B68F4
:103CC0000133264A1360304B4FF4FA62C3F8A02F39
:103CD00002233EE0234B1B684FF4FA6202FB03F31E
:103CE0000A222649184610F007FD2449214811F000
:103CF00017FD2048FCF776FE03461A461D4B134479
:103D00001F491A460B461B8813801949194811F0A0
:103D100007FD1848FCF766FE03461A46154B134488
:103D2000184A1188927819809A700F4B1B68164AAE
:103D3000C2F8A03F094B00221A600A4B00221A6009
:103D4000094B00221A60114B01221A60012300E086
:103D5000002318460837BD46B0BD00BFEC16002052
:103D6000D34D6210F0160020F4160020D80F00206A
:103D7000AC0F002078020020B8A30108A40F002097
:103D8000ECA20108E8A201080C170020F816002098
:103D900080B582B000AF1148FCF724FE786010496E
:103DA000104811F0BDFC7B680A220F49184610F03C
:103DB000A3FC0D490B4811F0B3FC0A48FCF712FEB6
:103DC00003461A46074B1344084A10681860928845
:103DD0009A8000BF0837BD4680BD00BF4016002056
:103DE00054020020AC020020A40F0020CCA3010844
:103DF00080B500AF1B4B1C4A1A601A4B1B4A5A6015
:103E0000184B00229A60174B0122DA60154B0022F2
:103E10001A61144B00225A61124B00229A61114B15
:103E20000022DA610F4B00221A620E480AF018F8DD
:103E30000346002B01D000F088FA002109480BF05E
:103E4000D1FB0346002B01D000F07FFA002105488A
:103E50000BF038FC0346002B01D000F076FA00BFCF
:103E600080BD00BF7C2A002000540040EC9C9010D4
:103E700080B5A2B000AF786007F1740300221A6029
:103E80005A609A60DA601A6107F114036022002117
:103E9000184610F051FC7B681B68274A934247D1B3
:103EA00040237B6100237B6407F1140318460CF068
:103EB0005BFD0346002B01D000F047FA1F4BDB6C83
:103EC0001E4A43F00203D3641C4BDB6C03F0020375
:103ED0003B613B69C0237B671223BB670023FB6701
:103EE0000323C7F880300423C7F8843007F1740334
:103EF0001946134809F00CFC104B9B6D0F4A43F414
:103F0000001393650D4B9B6D03F40013FB60FB687E
:103F1000002204211F2008F0A7FC1F2008F0D0FC7D
:103F200000220421202008F09FFC202008F0C8FC7B
:103F300000BF8837BD4680BD0054004000100240DD
:103F40000004004880B500AF0B4B0C4A1A600A4BC6
:103F500006225A60084B40F6FF72DA60064B40F6C4
:103F6000FF729A6004480BF019FC0346002B01D045
:103F700000F0EBF900BF80BDD02A002000300040E7
:103F800080B489B000AF78607B68FB60FB6853E861
:103F9000003FBB60BB6843F02003FB617B68FA69AC
:103FA000BA617B617969BA6941E800233B613B6989
:103FB000002BE9D100BF00BF2437BD465DF8047B6C
:103FC0007047000080B584B000AF05F024F900F020
:103FD0006BF9FDF7B9FFFDF75DFFFDF7F7FCFDF7A6
:103FE00025FEFFF7AFFFFFF703FF02F0B9F802F07D
:103FF0001FFF03F06BF903F0CDFA03F049FBFDF767
:10400000D9FE8D480FF0C8F88C48FFF7B9FF8C4BEC
:10401000002283F8B02F8B4B4EF660221A608A4B39
:104020001B7863F07F03DAB2874B1A70874B00224C
:104030005A60864B00221A60FDF716FC834B1B6802
:10404000834A5360814B5B68814A1360002002F011
:10405000E5FC02F061FE7E4B03F58053002283F8FD
:10406000182C7B4B03F58053002283F8172C784BD8
:1040700003F58053002283F8192C764801F0CCFE1A
:10408000754801F09DFF75480BF016FC4FF4805108
:10409000734809F0BDFE734B1B78002B07D003F06B
:1040A000A9FC704B00221A70012001F0ADF803F05A
:1040B0006FFB02F0E9F803F071FF04F02DF96A4B91
:1040C0001B78002B07D0634801F05FFF0346012BEC
:1040D00001D103F0D9F85B4B1B68002B22D1634B55
:1040E0001B68002B1ED100F041F9034619465948C0
:1040F00001F0A2FE5E4B1B78002B03D0514B42F225
:1041000010721A605A4B1B7883F00103DBB2002B4C
:1041100004D04C4B4EF660221A6003E0494B4EF639
:1041200060221A60464BD3F8903F524A934204D91A
:10413000434B4FF4FA62C3F8902F4F4B1B68002B90
:1041400001D1FDF7B9FFFEF7D3F94C4B1B78012BDA
:1041500047D14B494B4811F02EFB0346002B2DD085
:104160004949484811F027FBF8604849454811F093
:1041700022FBB860BA68FB68D31A7B60042001F0A8
:1041800043F83A4B01221A60FB68002B12D0BB683F
:10419000002B0FD0642200213D4810F0CDFA7B683F
:1041A00004331A46F9683A4810F0B8FA2F4B012246
:1041B0001A6011E0314B00221A700DE03549314888
:1041C00011F0F9FA0346002B03D0334B01221A7089
:1041D00002E02A4B00221A7096220021294810F092
:1041E000ABFA2E4B1B68002B7FF44DAF0022082149
:1041F0001B4809F0DDFD2A4B1B78032B10D8294BF7
:104200001B78012B0CD14FF400414FF0904009F086
:10421000FFFD234B1B780133DAB2214B1A7005E006
:104220001F4B00221A701F4B00221A701B4B4FF4B9
:104230007A721A6027E700BFE0470020003801408B
:104240000C170020604C0020E32A0020DC13002023
:104250004C2B0020182A0020EC290020D02A002016
:1042600000040048DE0F0020301500202C1500202F
:10427000E04B0020C0D40100784C0020291500201C
:10428000D4A3010858000020D8A30108E0A3010826
:1042900040160020E8A30108E22A00206C4C002010
:1042A000E02A00204D2A002080B596B000AF07F12B
:1042B000140344220021184610F03EFA3B46002227
:1042C0001A605A609A60DA601A614FF400700BF05D
:1042D00011FB0346002B01D000F037F809237B6166
:1042E0004FF48033BB610123BB620223FB630323D2
:1042F0003B6405237B642023BB640723FB64022308
:104300003B6502237B6507F1140318460BF054FB51
:104310000346002B01D000F018F80F233B60032365
:104320007B600023BB600023FB6000233B613B46B6
:10433000042118460CF08CF80346002B01D000F045
:1043400004F800BF5837BD4680BD80B400AF72B6D8
:1043500000BFFEE780B483B000AF7860396000BF73
:104360000C37BD465DF8047B70470000B0B584B0E3
:1043700000AF4FF4806010F0C1F90346FB600023EA
:104380007B600023BB60FB68002B00F0D4814FF4FE
:1043900080620021F86810F0CFF9FB68A8491A463E
:1043A0000B461B881380F868FCF71CFB03461A4673
:1043B000FB681344A3491A460B461B881380A24985
:1043C000F86811F0ADF9F868FCF70CFB03461A46E3
:1043D000FB6813449B491A460B461B881380F868F8
:1043E000FCF700FB03461A46FB681344974A1D4638
:1043F00014460FCC28606960AA60EB6007CC286186
:104400006961AA6123782B77F86801F02BFCF868C2
:10441000FCF7E8FA03461A46FB6813448C491A462F
:104420000B4603CB106051601B781372F868FCF7E1
:10443000D9FA03461A46FB68134482491A460B46CA
:104440001B881380F86800F02BFCF868FCF7CAFAA8
:1044500003461A46FB6813447E491A460B461B88DE
:104460001380F868FCF7BEFA03461A46FB6813444B
:10447000794A106818609188927999809A71F868E1
:10448000FCF7B0FA03461A46FB6813446D491A4616
:104490000B461B881380714B1B78002B4FD0704844
:1044A000FCF7A0FA03461A4600216D4810F044F9C3
:1044B00000F074FC6B49F86811F032F9F868FCF709
:1044C00091FA03461A46FB6813445E491A460B46A6
:1044D0001B8813806449F86811F022F9F868FCF72A
:1044E00081FA03461A46FB68134456491A460B469E
:1044F0001B8813805D49F86811F012F9F868FCF721
:1045000071FA03461A46FB6813444E491A460B4695
:104510001B8813805649F86811F002F9F868FCF717
:1045200061FA03461A46FB68134446491A460B468D
:104530001B8813804F49F86811F0F2F805E04E4BE4
:104540001B681946F86811F0EBF8F868FCF74AFAAE
:1045500003461A46FB6813443A491A460B461B8821
:104560001380464B1B7818463B1D0A22194610F053
:10457000C3F83B1D1946F86811F0D2F83F4B1B7881
:104580005BB2002B06DA3D4B1B7803F07F03DAB2F7
:104590003A4B1A70394B1B7803F04003002B06D0BE
:1045A000364B1B7823F04003DAB2344B1A70F868AC
:1045B000FCF718FA03461A46FB68134421491A46C9
:1045C0000B461B8813802E4B9B6807EE903AF8EE43
:1045D000677AB0EE670A01F087FB2A49F86811F0A4
:1045E0009FF8F868FCF7FEF903461A46FB68134487
:1045F00025491A460B461B881380214BDB6807EEC2
:10460000903AF8EE677AB0EE670A01F06DFB1D494B
:10461000F86811F085F8F868FCF7E4F903461A46E3
:10462000FB68134407491A460B461B881380174B37
:104630001B78002B2CD01549F86811F071F82DE08B
:1046400018A401081CA401080000002020A40108EF
:1046500040A401084CA4010850A401080C17002034
:10466000A2170020EC2A0020F42A0020002B0020B2
:10467000E42A00200C2B0020E00F0020E32A002079
:1046800030480020E80F002058A401083818002006
:104690002B4B1B681946F86811F042F8F868FCF7D4
:1046A000A1F903461A46FB68134426491A460B46ED
:1046B0001B881380F968012000F04EF8F968022089
:1046C00000F04AF8F968032000F046F8F968042081
:1046D00000F042F8F968052000F03EF85F22F96822
:1046E000194800F0BDF946220021174810F024F8BF
:1046F0006022F968154800F0B3F9462200211348FA
:1047000010F01AF8F968082000F026F8F968092076
:1047100000F022F8F868FCF765F903461A46FB68D2
:1047200013440B491A460B461B881380094B012280
:104730001A60FB6800E0002318461037BD46B0BD84
:10474000E40F00201CA40108F84A0020404B002080
:104750005CA40108F00F0020B0B588B000AF78600D
:1047600039600023BB6007F10C0300221A605A6015
:104770009A60DA600023FB77B24A7B6852F82330F4
:10478000002B29D03868FCF72DF903461A463B6800
:104790001344AD4A1068186012791A71A94A7B68EF
:1047A00052F82330184607F10803102219460FF07B
:1047B000A3FF07F108031946386810F0B1FF386805
:1047C000FCF710F903461A463B6813449F491A4602
:1047D0000B461B8813800FE03868FCF703F903468B
:1047E0001A463B6813449A4A1C46134607CB20607E
:1047F0006160A2601B88A381964A7B68DB0013443A
:10480000D3E90023134300F0FF80924A7B68DB006A
:104810001344D3E900014FF000024FF000030A0EE9
:1048200000231346FB77FA7F07F108038A491846ED
:1048300010F056FF0023FB7707F10803194638688C
:1048400010F06EFF834A7B68DB001344D3E900015C
:104850004FF000024FF000030A0C00231346FB77D1
:10486000FA7F07F108037C49184610F039FF00234E
:10487000FB7707F108031946386810F051FF754AB5
:104880007B68DB001344D3E900014FF000024FF0D6
:1048900000030A0A00231346FB77FA7F07F1080397
:1048A0006D49184610F01CFF0023FB7707F1080341
:1048B0001946386810F034FF664A7B68DB00134401
:1048C000D3E900014FF000024FF000030A0000237B
:1048D0001346FB77FA7F07F108035F49184610F08B
:1048E000FFFE0023FB7707F108031946386810F034
:1048F00017FF584A7B68DB001344D3E900014FF0EF
:1049000000024FF00003020E42EA01220B0E134692
:10491000FB77FA7F07F108034F49184610F0E0FED5
:104920000023FB7707F108031946386810F0F8FEFA
:10493000484A7B68DB001344D3E900014FF00002D2
:104940004FF00003020C42EA01420B0C1346FB77C6
:10495000FA7F07F108034049184610F0C1FE002312
:10496000FB7707F108031946386810F0D9FE394A79
:104970007B68DB001344D3E900014FF000024FF0E5
:104980000003020A42EA01620B0A1346FB77FA7F30
:1049900007F108033049184610F0A2FE0023FB7708
:1049A00007F108031946386810F0BAFE294A7B68F7
:1049B000DB001344D3E900231346FB77FA7F07F1AA
:1049C00008032549184610F08BFE0023FB7707F1FA
:1049D00008031946386810F0A3FE3868FCF702F89F
:1049E00003461A463B68134418491A460B461B886F
:1049F0001380184A7B68DB00D1184FF000024FF09B
:104A00000003C1E9002318E0124A7B68DB0013446D
:104A1000D3E90023134310D13868FBF7E3FF0346C3
:104A20001A463B6813440D4A1D4614460FCC2860B5
:104A30006960AA60EB6023882B8200BF2037BD46E7
:104A4000B0BD00BF0010002060A401081CA4010834
:104A500068A401080849002078A4010880A401087E
:104A600080B58AB000AFF860B9601346FB710023CF
:104A70003B6107F1140300221A605A609A60DA6001
:104A8000002387F82730F8E097F8273003F0070372
:104A9000DBB2002B34D1B868FBF7A4FF03461A46FB
:104AA000BB6813447A4A10681860FB795F2B09D100
:104AB000784B9B69184607F11003102219460FF036
:104AC0001BFE0BE0FB79602B08D1724BDB691846AB
:104AD00007F11003102219460FF00EFE07F1100324
:104AE0001946B86810F01CFEB868FBF77BFF034658
:104AF0001A46BB68134468491A460B461B88138044
:104B000097F827305A1C87F827201A46FB68134469
:104B10001B781A4607F110036049184610F0E0FDB3
:104B200007F110031946B86810F0FAFD97F827301E
:104B30005A1C87F827201A46FB6813441B781A462C
:104B400007F110035549184610F0CAFD07F110038C
:104B50001946B86810F0E4FD97F827305A1C87F81A
:104B600027201A46FB6813441B781A4607F11003E6
:104B70004A49184610F0B4FD07F110031946B86809
:104B800010F0CEFD97F827305A1C87F827201A46D8
:104B9000FB6813441B781A4607F110033F49184677
:104BA00010F09EFD07F110031946B86810F0B8FD2B
:104BB00097F827305A1C87F827201A46FB681344B9
:104BC0001B781A4607F110033449184610F088FD87
:104BD00007F110031946B86810F0A2FD97F82730C6
:104BE0005A1C87F827201A46FB6813441B781A467C
:104BF00007F110032949184610F072FD07F1100360
:104C00001946B86810F08CFD97F827305A1C87F8C1
:104C100027201A46FB6813441B781A4607F1100335
:104C20001E49184610F05CFD07F110031946B868DC
:104C300010F076FD97F82730FA6813441B781A466F
:104C400007F110031549184610F04AFD07F110034B
:104C50001946B86810F064FDB868FBF7C3FE034658
:104C60001A46BB6813440C491A460B461B8813802E
:104C700097F82730013387F8273097F827303F2BF4
:104C80007FF602AF00BF00BF2837BD4680BD00BF22
:104C900094A40108001000201CA4010878A40108B5
:104CA00080B582B000AF786004F004F931497868CB
:104CB00010F036FD7868FBF795FE03461A467B68D0
:104CC00013442D491A460B461B8813802B497868DC
:104CD00010F026FD7868FBF785FE03461A467B68D0
:104CE000134425491A460B461B88138024497868CB
:104CF00010F016FD7868FBF775FE03461A467B68D0
:104D0000134420491A460B461B8813801E497868B5
:104D100010F006FD7868FBF765FE03461A467B68CF
:104D200013441A491A460B461B88138018497868A1
:104D300010F0F6FC7868FBF755FE03461A467B68D0
:104D4000134412491A460B461B8813801149786890
:104D500010F0E6FC7868FBF745FE03461A467B68D0
:104D600013440D491A460B461B88138000BF0837B1
:104D7000BD4680BD4411002098A4010840110020C8
:104D8000381100209CA4010848110020A0A40108AB
:104D90004C110020501100201CA4010880B586B0E1
:104DA00000AF00237B6100233B610023FB730023E2
:104DB0007B6102E07B6901337B61904A7B6913442C
:104DC0001B782C2BF6D13B695A1C3A618B497A69C6
:104DD0000A441178894A13440A4683F896207B696D
:104DE00001337B61854A7B6913441B782C2B2AD0C5
:104DF00019E0824A7B6913441978804A3B6913445D
:104E000096330A461A70FB7B7C497A690A4411780A
:104E10007B4AD154FB7B0133FB733B6901333B611C
:104E20007B6901337B61754A7B6913441B782E2BA8
:104E3000DFD102E07B6901337B61704A7B691344F7
:104E40001B782C2BF6D13B695A1C3A616B497A6965
:104E50000A441178694A13440A4683F896207B690C
:104E600001337B61654A7B6913441B78412B0AD16E
:104E700001224FF400414FF0904008F099FF614B40
:104E800001225A700DE000224FF400414FF0904093
:104E900008F08EFF5B4B00225A7002E07B69013301
:104EA0007B61564A7B6913441B782C2BF6D17B69B6
:104EB00001337B610023FB730A22002152480FF06B
:104EC0003BFC19E04D4A7B69134419784B4A3B6916
:104ED000134496330A461A70FB7B5A1CFA73194620
:104EE000464A7B6913441A78474B5A543B6901334D
:104EF0003B617B6901337B61404A7B6913441B78CA
:104F00002C2BDFD1404B1B78002B3AD04FF0000305
:104F1000BB603E480FF0A2FB53EC102B1046194625
:104F2000FCF772FA0346BB6097ED027ADFED386A50
:104F3000C7EE267AC7ED027A334B1B78A3F1300215
:104F400013469B0013445B001A462F4B5B78303BA3
:104F5000134407EE903AF8EEE77A97ED027A77EE8F
:104F6000277AC7ED027A0A22002127480FF0E4FBD6
:104F7000B868FBF7F9FE02460B462649224810F0B6
:104F8000AFFB3B695A1C3A611C497A690A441178A3
:104F90001A4A13440A4683F896207B6901337B61E1
:104FA0000FE0164A7B6913441978144A3B6913448D
:104FB00096330A461A703B6901333B617B690133C2
:104FC0007B610E4A7B6913441B782C2BE9D13B692A
:104FD0005A1C3A6109497A690A441178074A13440C
:104FE0000A4683F896207B6901337B610023FB73BB
:104FF0000A22002108480FF09FFB29E00C1700202F
:10500000EC2A0020A04A0020F42A0020F62A0020E2
:1050100000007042A4A40108002B0020734A7B69A1
:1050200013441978714A3B69134496330A461A703F
:10503000FB7B5A1CFA7319466C4A7B6913441A7835
:105040006B4B5A543B6901333B617B6901337B6194
:10505000664A7B6913441B782C2BDFD1644B1B7889
:10506000002B40D04FF000037B6062480FF0F6FA4F
:1050700053EC102B10461946FCF7C6F903467B602B
:1050800097ED017ADFED5C6AC7EE267AC7ED017A0B
:10509000574B1B78303B642202FB03F1544B5B7887
:1050A000A3F1300213469B0013445B00CA18504B17
:1050B0009B78303B134407EE903AF8EEE77A97ED91
:1050C000017A77EE277AC7ED017A0A220021484853
:1050D0000FF032FB7868FBF747FE02460B46474964
:1050E000434810F0FDFA3B695A1C3A613F497A691E
:1050F0000A4411783D4A13440A4683F896207B6996
:1051000001337B610FE0394A7B6913441978374AD0
:105110003B69134496330A461A703B6901333B617D
:105120007B6901337B61314A7B6913441B782C2BEB
:10513000E9D13B695A1C3A612C497A690A441178D1
:105140002A4A13440A4683F896207B6901337B611F
:105150000023FB730CE0FB7B5A1CFA731946234AAD
:105160007B6913441A78264B5A547B6901337B615F
:105170001E4A7B6913441B782C2BECD17B690133CD
:105180007B6102E07B6901337B61184A7B691344D0
:105190001B782C2BF6D17B6901337B610023FB73D9
:1051A00019E0124A7B6913441978104A3B69134489
:1051B00096330A461A70FB7B5A1CFA7319460B4A3F
:1051C0007B6913441A780F4B5A543B6901333B6196
:1051D0007B6901337B61054A7B6913441B782C2B67
:1051E000DFD100BF00BF1837BD4680BD0C170020BF
:1051F000002B0020032B002000007042A4A4010813
:105200000C2B0020E42A002080B582B000AF0346BA
:10521000FB71FB79184600F00BF80346194603486A
:1052200000F00AFE00BF0837BD4680BD182A0020E6
:10523000B0B584B000AF0346FB714FF4FA700FF0C5
:105240005DFA0346FB60FB68002B00F096804FF48C
:1052500080620021F8680FF06FFAFB6849491A462E
:105260000B461B881380F868FBF7BCFB03461A4605
:10527000FB68134444491A460B461B881380434974
:10528000F86810F04DFAF868FBF7ACFB03461A46D5
:10529000FB6813443C491A460B461B881380F86888
:1052A000FBF7A0FB03461A46FB681344384A1D4629
:1052B00014460FCC28606960AA60EB6007CC2861B7
:1052C0006961AA6123782B77F86800F0CBFCF86855
:1052D000FBF788FB03461A46FB6813442D4A1C461D
:1052E000134607CB20606160A260F868FBF77AFB89
:1052F00003461A46FB68134423491A460B461B888B
:105300001380F868FFF7CCFCF868FBF76BFB0346EB
:105310001A46FB68134420491A460B461B88138023
:10532000F868FBF75FFB03461A46FB6813441B4A09
:10533000106818609188927999809A71F868FBF7E3
:1053400051FB03461A46FB6813440F491A460B46A5
:105350001B881380FB791946F86800F023F8F86879
:10536000FBF740FB03461A46FB6813440C491A46F8
:105370000B461B881380FB6800E00023184610379B
:10538000BD46B0BD18A401081CA4010800000020FF
:1053900020A40108ACA401084CA4010850A40108F1
:1053A0005CA40108B0B588B000AF78600B46FB7014
:1053B0000023FB6007F1100300221A605A609A6014
:1053C000DA60FB78632B00F2F08301A252F823F03D
:1053D00061550008CB550008AB5B0008EF5500088D
:1053E00053560008A5560008855700085158000874
:1053F000D5580008395900089D590008015A00087D
:10540000655A0008AB5B0008AB5B0008AB5B0008AB
:10541000AB5B0008AB5B0008AB5B0008AB5B000854
:10542000AB5B0008AB5B0008AB5B0008AB5B000844
:10543000AB5B0008AB5B0008AB5B0008AB5B000834
:10544000AB5B0008AB5B0008AB5B0008AB5B000824
:10545000AB5B0008AB5B0008AB5B0008AB5B000814
:10546000AB5B0008AB5B0008AB5B0008AB5B000804
:10547000AB5B0008AB5B0008AB5B0008AB5B0008F4
:10548000AB5B0008AB5B0008AB5B0008AB5B0008E4
:10549000AB5B0008AB5B0008AB5B0008AB5B0008D4
:1054A000AB5B0008AB5B0008AB5B0008AB5B0008C4
:1054B000AB5B0008AB5B0008AB5B0008AB5B0008B4
:1054C000AB5B0008AB5B0008AB5B0008AB5B0008A4
:1054D000AB5B0008AB5B0008AB5B0008AB5B000894
:1054E000AB5B0008AB5B0008AB5B0008AB5B000884
:1054F000AB5B0008AB5B0008AB5B0008AB5B000874
:10550000AB5B0008AB5B0008AB5B0008AB5B000863
:10551000AB5B0008AB5B0008AB5B0008AB5B000853
:10552000AB5B0008AB5B0008AB5B0008AB5B000843
:10553000AB5B0008AB5B0008AB5B0008AB5B000833
:10554000AB5B0008AB5B0008AB5B0008AB5B000823
:10555000AB5B0008AB5B0008AB5B0008795B000845
:105560007868FBF73FFA03461A467B681344AC4A57
:105570001188927819809A707868FBF733FA03469D
:105580001A467B681344A7491A460B461B881380AA
:10559000FB7807F10C010A2218460FF0ADF807F16D
:1055A0000C031946786810F0BBF87868FBF71AFA14
:1055B00003461A467B6813449A491A460B461B88D1
:1055C0001380994B01221A7008E37868FBF70AFAF6
:1055D00003461A467B681344944A1C46134607CB7D
:1055E00020606160A260786800F000FBF6E27868F5
:1055F000FBF7F8F903461A467B6813448C4A118876
:10560000927819809A707868FBF7ECF903461A468D
:105610007B68134483491A460B461B881380FB782A
:1056200007F10C010A2218460FF066F807F10C0387
:105630001946786810F074F87868FBF7D3F90346D8
:105640001A467B68134477491A460B461B88138019
:10565000C4E27868FBF7C6F903461A467B68134430
:10566000744A1188927819809A707868FBF7BAF9B1
:1056700003461A467B6813446A491A460B461B8840
:1056800013806D49786810F04BF87868FBF7AAF939
:1056900003461A467B68134462491A460B461B8828
:1056A00013809BE27868FBF79DF903461A467B68F6
:1056B00013445F4A1188927819809A707868FBF7D2
:1056C00091F903461A467B68134456491A460B461D
:1056D0001B881380FB7807F10C010A2218460FF093
:1056E0000BF807F10C031946786810F019F8786880
:1056F000FBF778F903461A467B68134449491A4672
:105700000B461B8813807868FBF76CF903461A4632
:105710007B681344494A1C4615460FCD20606160E2
:10572000A260E3607868FBF75DF903461A467B6880
:1057300013443C491A460B461B8813807868FBF7D4
:1057400051F903461A467B6813443D4A1D461446E8
:105750000FCC28606960AA60EB6003CC28616961A6
:105760002388A2782B831346AB767868FBF73AF947
:1057700003461A467B6813442A491A460B461B887F
:1057800013802BE27868FBF72DF903461A467B68F5
:105790001344274A1188927819809A707868FBF729
:1057A00021F903461A467B6813441E491A460B46E4
:1057B0001B881380FB7807F10C010A2218460EF0B3
:1057C0009BFF07F10C03194678680FF0A9FF786872
:1057D000FBF708F903461A467B681344194A1C462E
:1057E00015460FCD20606160A260E36028682061EB
:1057F000AB88AA79A3821346A375134978680FF082
:105800008FFF7868FBF7EEF803461A467B6813446F
:105810000E491A460B4603CB10605160DEE100BF13
:10582000B8A401081CA40108122B0020BCA4010884
:10583000C8A40108CCA4010840160020D0A4010887
:10584000E0A40108FCA401089C0F002014A5010895
:105850007868FBF7C7F803461A467B681344BD4ACD
:105860001188927819809A707868FBF7BBF8034624
:105870001A467B681344B8491A460B461B881380A6
:10588000FB7807F10C010A2218460EF035FF07F1EC
:105890000C03194678680FF043FF7868FBF7A2F80D
:1058A00003461A467B681344AB491A460B461B88CD
:1058B0001380AA4978680FF033FF7868FBF792F8F5
:1058C00003461A467B681344A3491A460B461B88B5
:1058D000138083E17868FBF785F803461A467B68F6
:1058E00013449C4A1188927819809A707868FBF763
:1058F00079F803461A467B68134497491A460B46C3
:105900001B881380FB7807F10C010A2218460EF061
:10591000F3FE07F10C03194678680FF001FF786871
:10592000FBF760F803461A467B6813448A491A4617
:105930000B461B88138051E17868FBF753F8034648
:105940001A467B681344834A1188927819809A70AA
:105950007868FBF747F803461A467B6813447E498C
:105960001A460B461B881380FB7807F10C010A22AC
:1059700018460EF0C1FE07F10C03194678680FF0C7
:10598000CFFE7868FBF72EF803461A467B6813446F
:1059900071491A460B461B8813801FE17868FBF794
:1059A00021F803461A467B6813446A4A11889278A4
:1059B00019809A707868FBF715F803461A467B68D9
:1059C000134465491A460B461B881380FB7807F180
:1059D0000C010A2218460EF08FFE07F10C0319463F
:1059E00078680FF09DFE7868FAF7FCFF03461A46C8
:1059F0007B68134458491A460B461B881380EDE018
:105A00007868FAF7EFFF03461A467B681344514A59
:105A10001188927819809A707868FAF7E3FF034644
:105A20001A467B6813444C491A460B461B88138060
:105A3000FB7807F10C010A2218460EF05DFE07F113
:105A40000C03194678680FF06BFE7868FAF7CAFF06
:105A500003461A467B6813443F491A460B461B8887
:105A60001380BBE07868FAF7BDFF03461A467B68EF
:105A700013443B4A1188927819809A707868FAF733
:105A8000B1FF03461A467B681344364A1068186013
:105A900012791A71344B1B78012B13D17868FAF7FD
:105AA000A1FF03461A467B681344304A1D4614463C
:105AB0000FCC28606960AA60EB6020682861A38829
:105AC000AB823AE0284B1B78002B16D17868FAF7A6
:105AD00089FF03461A467B681344254A1C4615462F
:105AE0000FCD20606160A260E36028682061AB8810
:105AF000AA79A3821346A3751FE07868FAF772FFAC
:105B000003461A467B6813441A491A460B4603CBD0
:105B10001060516019889B7811819372124B1B7829
:105B2000184607F10C030A2219460EF0E5FD07F1AD
:105B30000C03194678680FF0F3FD7868FAF752FF06
:105B400003461A467B68134403491A460B461B88D2
:105B5000138043E0C8A401081CA401089C0F002086
:105B60001CA5010820A50108E22A002028A501089B
:105B700040A5010858A501087868FAF733FF0346E5
:105B80001A467B681344174A1068186012791A7114
:105B90007868FAF727FF03461A467B6813441249D0
:105BA0001A460B461B88138018E07868FAF71AFF2C
:105BB00003461A467B6813440A4A10681860127933
:105BC0001A717868FAF70EFF03461A467B68134489
:105BD00005491A460B461B88138000BF00BF2037BB
:105BE000BD46B0BD64A501081CA4010880B586B0FF
:105BF00000AF78600123FB750023FB6007F1100301
:105C000000221A609A800123FB751FE0FB7D134A76
:105C100052F82330184607F10C03102219460EF0F3
:105C20006BFD07F10C03194678680FF079FD786871
:105C3000FAF7D8FE03461A467B68134408491A4609
:105C40000B461B881380FB7D0133FB75FB7D332BDB
:105C5000DCD900BF00BF1837BD4680BD0010002052
:105C60001CA4010880B584B000AF78600023FB60FD
:105C700007F10C0305221B4918460FF031FD07F10F
:105C80000C03194678680FF04BFD07F10C03042252
:105C9000002118460EF050FD07F10C0306221149B1
:105CA00018460FF01DFD07F10C03194678680FF038
:105CB00037FD07F10C030422002118460EF03CFDCD
:105CC00007F10C031722074918460FF009FD07F1E9
:105CD0000C03194678680FF023FD00BF1037BD464E
:105CE00080BD00BF6CA5010880B487B000AF87ED10
:105CF000010A0023FB754FF000033B610023FB8189
:105D0000D7ED017AF5EEC07AF1EE10FA6FDDD7ED3E
:105D1000017AFCEEE77AC7ED007A3B78FB75D7EDA8
:105D2000017AFDEEE77AF8EEE77A97ED017A77EE01
:105D3000677AC7ED047AD7ED047A9FED337A67EE80
:105D4000877AFCEEE77A17EE903AFB81FB7D0A2B0F
:105D500019D9FB7D2D4AA2FB0323DB08DBB23033CC
:105D6000DAB22B4B1A70FA7D284BA3FB0213D90829
:105D70000B469B000B445B00D31ADBB23033DAB224
:105D8000234B5A7007E0224B30221A70FB7D3033D0
:105D9000DAB21F4B5A701E4B2E229A70FB890A2BC7
:105DA0001BD9FB89194AA2FB0323DB089BB2DBB298
:105DB0003033DAB2164BDA70FA89144BA3FB0213B4
:105DC000D9080B469B000B445B00D31A9BB2DBB295
:105DD0003033DAB20E4B1A7110E00D4B3022DA700C
:105DE000FB89DBB23033DAB2094B1A7106E0084B9B
:105DF000084A92E8030018600433197000BF1C378A
:105E0000BD465DF8047B70470000C842CDCCCCCCC9
:105E1000E80F002070A5010880B483B000AF78605F
:105E20007B6800221A607B6800225A6000BF0C3732
:105E3000BD465DF8047B704780B582B000AF7860E6
:105E400039607B681A687B685B689A4205DC7B680E
:105E500000221A607B6800225A607B681A687B689F
:105E6000023253F82230002B0FD07B681A687B680F
:105E7000023253F8223018460EF048FC7B681A684C
:105E80007B680232002143F822103B68002B0BD0C4
:105E90007B681A687B680232396843F822107B6895
:105EA0001B685A1C7B681A607B681B68092B05DD20
:105EB000044B01221A607B6809221A6000BF083770
:105EC000BD4680BD142B002080B582B000AF786045
:105ED0007B685B68002B03D17B681B68002B05D0B7
:105EE0007B685A687B681B689A422CD17B685A6829
:105EF0007B681B689A4243DB7B685B68002B3FD062
:105F00007B681B68002B3BD07B685A687B68023239
:105F100053F82230002B0FD07B685A687B6802321E
:105F200053F8223018460EF0F1FB7B685A687B6804
:105F30000232002143F822107B6800221A607B683D
:105F400000225A601CE07B685A687B68023253F872
:105F5000223018460EF0DAFB7B685A687B68023202
:105F6000002143F822107B685B685A1C7B685A60EA
:105F70007B685B68092B04DD7B6800225A6000E0C7
:105F800000BF00BF0837BD4680BD80B483B000AFFE
:105F900078607B681A687B685B689A4209D17B6885
:105FA0005A687B68023253F82230002B01D101235A
:105FB00000E0002318460C37BD465DF8047B7047AF
:105FC00080B483B000AF78607B6800221A607B6881
:105FD00000225A6000BF0C37BD465DF8047B704755
:105FE00080B582B000AF786039607B681A687B68E2
:105FF0005B689A4205DC7B6800221A607B6800229D
:106000005A607B681A687B68023253F82230002B92
:106010000FD07B681A687B68023253F8223018462A
:106020000EF074FB7B681A687B680232002143F82B
:1060300022103B68002B0BD07B681A687B68023209
:10604000396843F822107B681B685A1C7B681A6009
:106050007B681B68082B02DD7B6808221A6000BF82
:106060000837BD4680BD80B582B000AF78607B68E0
:106070005B68002B03D17B681B68002B05D07B6815
:106080005A687B681B689A422CD17B685A687B6887
:106090001B689A4243DB7B685B68002B3FD07B68C0
:1060A0001B68002B3BD07B685A687B68023253F830
:1060B0002230002B0FD07B685A687B68023253F87D
:1060C000223018460EF022FB7B685A687B68023249
:1060D000002143F822107B6800221A607B680022AE
:1060E0005A601CE07B685A687B68023253F82230A1
:1060F00018460EF00BFB7B685A687B680232002161
:1061000043F822107B685B685A1C7B685A607B6886
:106110005B68082B04DD7B6800225A6000E000BF4A
:1061200000BF0837BD4680BD80B483B000AF786043
:106130007B681A687B685B689A4209D17B685A68F9
:106140007B68023253F82230002B01D1012300E09A
:10615000002318460C37BD465DF8047B70470000ED
:1061600080B500AF104B114A1A600F4B00225A60E5
:106170000D4B7F229A600C4BF922DA600A4B002209
:106180001A61094B00225A61074B00229A61064BA3
:106190000022DA6104480BF023F90346002B01D0FA
:1061A000FEF7D3F800BF80BD182B00200028004068
:1061B00080B59AB000AF786007F108036022002133
:1061C00018460EF0B9FA7B681B680F4A934217D144
:1061D0004FF40033BB604FF400737B6607F1080394
:1061E00018460AF0C1FB0346002B01D0FEF7ADF8BC
:1061F000064BD3F89030054A43F40043C2F8903080
:1062000000BF6837BD4680BD002800400010024036
:1062100080B483B000AF78607B689B8C9BB2DBB2AC
:1062200018460C37BD465DF8047B704780B500AF5B
:106230001048FFF7EDFF03461A460F4B1A700F4B3D
:10624000D3F8A83F5A1C0D49C1F8A82F0A4A117863
:106250000A4A13440A4683F8F724094B4FF4FA72AA
:106260001A60084B1B68002B02D1064B01221A60F2
:1062700000BF80BD00380140402B00200C170020DB
:106280005C4C00203C2B0020B0B590B000AF002348
:10629000FB87002387F83D30A94B1B69002B40F09A
:1062A0005283A74B03F5805393F81A3CDBB2032BC0
:1062B00000F2428301A252F823F000BFCD62000831
:1062C0000964000883670008E16800089C4B4FF4EC
:1062D000FA721A619B48FFF727FF0346012B5AD138
