:020000040800F2
:1008000000000120958D00087F70000885700008A9
:100810008B700008917000089770000800000000BD
:100820000000000000000000000000009D700008B3
:10083000AB70000800000000B9700008C770000825
:10084000E58D0008E58D0008E58D0008E58D0008C0
:10085000E58D0008E58D0008E58D0008E58D0008B0
:10086000E58D0008E58D0008D3700008E1700008F0
:10087000E58D0008E58D0008E58D0008E58D000890
:10088000E58D0008E58D0008F57000080971000885
:100890001D71000831710008457100085971000888
:1008A000E58D0008E58D0008E58D0008E58D000860
:1008B000E58D0008000000000000000069710008DC
:1008C0007D710008E58D0008E58D0008E58D0008C4
:1008D00091710008A5710008C1710008DD71000860
:1008E000E58D0008E58D0008000000000000000014
:1008F00000000000000000000000000000000000F8
:1009000000000000E58D000800000000E58D0008F3
:100910000000000000000000E58D0008ED710008F7
:10092000E58D0008E58D0008E58D0008E58D0008DF
:10093000E58D00080000000000000000000000003D
:10094000E58D0008E58D0008E58D0008E58D0008BF
:10095000E58D0008E58D0008E58D0008E58D0008AF
:10096000E58D0008E58D0008E58D00080000000019
:10097000E58D0008E58D0008E58D00080000000009
:0C098000E58D0008E58D0008E58D0008FD
:1009900010B5054C237833B9044B13B10448AFF3B9
:1009A00000800123237010BDD81600200000000035
:1009B0001088010808B5034B1BB103490348AFF386
:1009C000008008BD00000000DC160020108801082F
:1009D00010F8012B11F8013B012A28BF9A42F7D0E9
:1009E000D01A7047034613F8012B002AFBD1181ABE
:1009F0000138704700000000000000000000000007
:100A000001F0FF01102A2BDB10F0070F08D010F8BF
:100A1000013B013A8B422DD010F0070F42B3F6D1C3
:100A2000F0B441EA012141EA014122F007047FF0DC
:100A300000070023F0E80256083C85EA010586EA33
:100A4000010685FA47F5A3FA87F586FA47F6A5FA6F
:100A500087F68EB9EED1F0BC01F0FF0102F007027B
:100A600032B110F8013B013A83EA010313B1F8D126
:100A70000020704701387047002D06BF3546033807
:100A8000073815F0010F07D1013015F4807F02BF40
:100A9000013015F4C03F0130F0BC0138704700BF91
:100AA00081F0004102E000BF83F0004330B54FEA1F
:100AB00041044FEA430594EA050F08BF90EA020F8C
:100AC0001FBF54EA000C55EA020C7FEA645C7FEA1F
:100AD000655C00F0E2804FEA5454D4EB5555B8BF42
:100AE0006D420CDD2C4480EA020281EA030382EAB3
:100AF000000083EA010180EA020281EA0303362D45
:100B000088BF30BD11F0004F4FEA01314FF4801C17
:100B10004CEA113102D0404261EB410113F0004F29
:100B20004FEA03334CEA133302D0524263EB4303E0
:100B300094EA050F00F0A780A4F10104D5F1200E7E
:100B40000DDB02FA0EFC22FA05F2801841F10001D9
:100B500003FA0EF2801843FA05F359410EE0A5F1AD
:100B600020050EF1200E012A03FA0EFC28BF4CF0DE
:100B7000020C43FA05F3C01851EBE37101F0004594
:100B800007D54FF0000EDCF1000C7EEB00006EEBA1
:100B90000101B1F5801F1BD3B1F5001F0CD349082B
:100BA0005FEA30004FEA3C0C04F101044FEA445282
:100BB00012F5800F80F09A80BCF1004F08BF5FEA09
:100BC000500C50F1000041EB045141EA050130BDE9
:100BD0005FEA4C0C404141EB0101013C28BFB1F5FB
:100BE000801FE9D291F0000F04BF01460020B1FA46
:100BF00081F308BF2033A3F10B03B3F120020CDA19
:100C00000C3208DD02F1140CC2F10C0201FA0CF0F6
:100C100021FA02F10CE002F11402D8BFC2F1200C5B
:100C200001FA02F120FA0CFCDCBF41EA0C01904011
:100C3000E41AA2BF01EB0451294330BD6FEA04045A
:100C40001F3C1CDA0C340EDC04F11404C4F1200245
:100C500020FA04F001FA02F340EA030021FA04F357
:100C600045EA030130BDC4F10C04C4F1200220FAAE
:100C700002F001FA04F340EA0300294630BD21FAEC
:100C800004F0294630BD94F0000F83F4801306BFB2
:100C900081F480110134013D4EE77FEA645C18BFA6
:100CA0007FEA655C29D094EA050F08BF90EA020F3D
:100CB00005D054EA000C04BF1946104630BD91EA35
:100CC000030F1EBF0021002030BD5FEA545C05D138
:100CD0004000494128BF41F0004130BD14F5800477
:100CE0003CBF01F5801130BD01F0004545F0FE41EB
:100CF00041F470014FF0000030BD7FEA645C1ABF20
:100D0000194610467FEA655C1CBF0B46024650EA56
:100D1000013406BF52EA033591EA030F41F4002182
:100D200030BD00BF90F0000F04BF0021704730B508
:100D30004FF4806404F132044FF000054FF00001DD
:100D400050E700BF90F0000F04BF0021704730B59E
:100D50004FF4806404F1320410F0004548BF404273
:100D60004FF000013EE700BF42004FEAE2014FEAC8
:100D700031014FEA02701FBF12F07F4393F07F4FA3
:100D800081F06051704732F07F4208BF704793F0A6
:100D90007F4F04BF41F40021704730B54FF46074B9
:100DA00001F0004521F000411CE700BF50EA0102BC
:100DB00008BF704730B54FF000050AE050EA010265
:100DC00008BF704730B511F0004502D5404261EBD5
:100DD00041014FF4806404F132045FEA915C3FF416
:100DE000D8AE4FF003025FEADC0C18BF03325FEAB3
:100DF000DC0C18BF033202EBDC02C2F1200300FA64
:100E000003FC20FA02F001FA03FE40EA0E0021FA88
:100E100002F11444BDE600BF70B54FF0FF0C4CF476
:100E2000E06C1CEA11541DBF1CEA135594EA0C0F28
:100E300095EA0C0F00F0DEF82C4481EA030621EA63
:100E40004C5123EA4C5350EA013518BF52EA03359E
:100E500041F4801143F4801338D0A0FB02CE4FF050
:100E60000005E1FB02E506F00042E0FB03E54FF080
:100E70000006E1FB03569CF0000F18BF4EF0010E78
:100E8000A4F1FF04B6F5007F64F5407404D25FEA74
:100E90004E0E6D4146EB060642EAC62141EA555127
:100EA0004FEAC52040EA5E504FEACE2EB4F1FD0C69
:100EB00088BFBCF5E06F1ED8BEF1004F08BF5FEAE7
:100EC000500E50F1000041EB045170BD06F0004699
:100ED00046EA010140EA020081EA0301B4EB5C0446
:100EE000C2BFD4EB0C0541EA045170BD41F480113E
:100EF0004FF0000E013C00F3AB8014F1360FDEBF63
:100F0000002001F0004170BDC4F10004203C35DA3E
:100F10000C341BDC04F11404C4F1200500FA05F3C1
:100F200020FA04F001FA05F240EA020001F0004262
:100F300021F0004110EBD37021FA04F642EB0601D8
:100F40005EEA430E08BF20EAD37070BDC4F10C0402
:100F5000C4F1200500FA04F320FA05F001FA04F2C6
:100F600040EA020001F0004110EBD37041F10001B2
:100F70005EEA430E08BF20EAD37070BDC4F12005BD
:100F800000FA05F24EEA020E20FA04F301FA05F225
:100F900043EA020321FA04F001F0004121FA04F2CD
:100FA00020EA020000EBD3705EEA430E08BF20EA9D
:100FB000D37070BD94F0000F0FD101F000464000D7
:100FC00041EB010111F4801F08BF013CF7D041EA59
:100FD000060195F0000F18BF704703F0004652005D
:100FE00043EB030313F4801F08BF013DF7D043EA2E
:100FF0000603704794EA0C0F0CEA135518BF95EAE4
:101000000C0F0CD050EA410618BF52EA4306D1D16A
:1010100081EA030101F000414FF0000070BD50EA89
:10102000410606BF1046194652EA430619D094EA13
:101030000C0F02D150EA013613D195EA0C0F05D1FD
:1010400052EA03361CBF104619460AD181EA030151
:1010500001F0004141F0FE4141F470014FF0000009
:1010600070BD41F0FE4141F4780170BD70B54FF0A4
:10107000FF0C4CF4E06C1CEA11541DBF1CEA135524
:1010800094EA0C0F95EA0C0F00F0A7F8A4EB050406
:1010900081EA030E52EA03354FEA013100F08880FD
:1010A0004FEA03334FF0805545EA131343EA1263C6
:1010B0004FEA022245EA111545EA10654FEA00267B
:1010C0000EF000419D4208BF964244F1FD0404F534
:1010D000407402D25B084FEA3202B61A65EB030590
:1010E0005B084FEA32024FF480104FF4002CB6EB4D
:1010F000020E75EB030E22BFB61A754640EA0C00CD
:101100005B084FEA3202B6EB020E75EB030E22BF0C
:10111000B61A754640EA5C005B084FEA3202B6EB4D
:10112000020E75EB030E22BFB61A754640EA9C000C
:101130005B084FEA3202B6EB020E75EB030E22BFDC
:10114000B61A754640EADC0055EA060E18D04FEA9A
:10115000051545EA16754FEA06164FEAC30343EA3A
:1011600052734FEAC2025FEA1C1CC0D111F4801F07
:101170000BD141EA00014FF000004FF0004CB6E700
:1011800011F4801F04BF01430020B4F1FD0C88BF9F
:10119000BCF5E06F3FF6AFAEB5EB030C04BFB6EBAA
:1011A000020C5FEA500C50F1000041EB045170BD9D
:1011B0000EF0004E4EEA113114EB5C04C2BFD4EBCA
:1011C0000C0541EA045170BD41F480114FF0000E4E
:1011D000013C90E645EA060E8DE60CEA135594EACA
:1011E0000C0F08BF95EA0C0F3FF43BAF94EA0C0FCD
:1011F0000AD150EA01347FF434AF95EA0C0F7FF442
:1012000025AF104619462CE795EA0C0F06D152EA95
:1012100003353FF4FDAE1046194622E750EA410679
:1012200018BF52EA43067FF4C5AE50EA41047FF48A
:101230000DAF52EA43057FF4EBAE12E74FF0FF3CEF
:1012400006E000BF4FF0010C02E000BF4FF0010CC0
:101250004DF804CD4FEA410C7FEA6C5C4FEA430C39
:1012600018BF7FEA6C5C1BD001B050EA410C0CBF88
:1012700052EA430C91EA030F02BF90EA020F0020EA
:10128000704710F1000F91EA030F58BF994208BF51
:1012900090422CBFD8176FEAE37040F0010070470E
:1012A0004FEA410C7FEA6C5C02D150EA013C07D165
:1012B0004FEA430C7FEA6C5CD6D152EA033CD3D0B0
:1012C0005DF8040B704700BF8446104662468C46AA
:1012D0001946634600E000BF01B5FFF7B7FF0028DD
:1012E00048BF10F1000F01BD4DF808EDFFF7F4FF06
:1012F0000CBF012000205DF808FB00BF4DF808ED91
:10130000FFF7EAFF34BF012000205DF808FB00BFB3
:101310004DF808EDFFF7E0FF94BF012000205DF8D5
:1013200008FB00BF4DF808EDFFF7CEFF94BF01208A
:1013300000205DF808FB00BF4DF808EDFFF7C4FF83
:1013400034BF012000205DF808FB00BF4FEA410CCC
:101350007FEA6C5C02D150EA013C0AD14FEA430CAF
:101360007FEA6C5C02D152EA033C02D14FF00000EC
:1013700070474FF0010070474FEA410212F500122A
:1013800015D211D56FF47873B3EB625212D94FEACC
:10139000C12343F0004343EA505311F0004F23FAB6
:1013A00002F018BF404270474FF00000704750EA0B
:1013B000013005D111F0004008BF6FF000407047C8
:1013C0004FF00000704700BF4A0011D212F5001222
:1013D00011D20DD56FF47873B3EB62520ED44FEA8D
:1013E000C12343F0004343EA505323FA02F070470D
:1013F0004FF00000704750EA013002D14FF0FF304B
:1014000070474FF0000070474FEA4102B2F1E043ED
:1014100024BFB3F5001CDCF1FE5C0DD901F0004CDB
:101420004FEAC0024CEA5070B2F1004F40EB83002B
:1014300008BF20F00100704711F0804F21D113F157
:101440003872BCBF01F00040704741F480114FEA90
:101450005252C2F11802C2F1200C10FA0CF320FA19
:1014600002F018BF40F001004FEAC1234FEAD32336
:1014700003FA0CFC40EA0C0023FA02F34FEA4303A0
:10148000CCE77FEA625307D150EA01331EBF4FF029
:10149000FE4040F44000704701F0004040F0FE4044
:1014A00040F40000704700BF53B94AB9002908BF93
:1014B00000281CBF4FF0FF314FF0FF3000F0A4B9FF
:1014C000ADF1080C6DE904CE00F03CF8DDF804E065
:1014D000DDE9022304B0704738B50022002304463A
:1014E0000D46FFF70BFF28B920462946BDE83840D6
:1014F00000F00AB8204605F1004100F005F840422E
:1015000061EB410138BD00BFD0B50C4B002206464F
:101510000F46FFF781FCFFF757FF0446FFF702FC79
:10152000074B0022FFF778FC02460B46304639464F
:10153000FFF7BAFAFFF748FF2146D0BD0000F03DA3
:101540000000F0412DE9F047089D04468C46002B31
:1015500040F083808A42174647D9B2FA82F242B1FC
:10156000C2F1200024FA00F09140974040EA010CBB
:1015700094404FEA1748230CBCFBF8F61FFA87FE8D
:1015800008FB16C143EA014306FB0EF1994209D953
:10159000FB1806F1FF3080F01981994240F2168164
:1015A000023E3B445B1AA4B2B3FBF8F008FB1033D5
:1015B00044EA034400FB0EFEA64509D93C1900F19C
:1015C000FF3380F00581A64540F2028102383C4499
:1015D00040EA0640A4EB0E0400261DB1D4400023CF
:1015E000C5E900433146BDE8F08702B9FFDEB2FA33
:1015F00082F2002A50D1CB1B4FEA174E1FFA87F810
:101600000126B3FBFEFC210C0EFB1C3341EA034117
:1016100008FB0CF38B4207D979180CF1FF3002D28A
:101620008B4200F2E9808446C91AA3B2B1FBFEF0F6
:101630000EFB101143EA014408FB00F8A04507D94E
:101640003C1900F1FF3302D2A04500F2D9801846C0
:10165000A4EB080440EA0C40BFE78B4209D9002DF7
:1016600000F0B1800026C5E9000130463146BDE8F2
:10167000F087B3FA83F6002E4AD18B4202D382421E
:1016800000F2B880841A61EB030101208C46002D22
:10169000A8D0C5E9004CA5E7C2F1200320FA03F663
:1016A000974001FA02F04FEA174ED9403043030C3D
:1016B000B1FBFEF61FFA87F80EFB161143EA014351
:1016C00006FB08F1994204FA02F409D9FB1806F165
:1016D000FF3C80F08D80994240F28A80023E3B447C
:1016E0005B1A81B2B3FBFEF00EFB103341EA0341FB
:1016F00000FB08F38B4207D9791800F1FF3C73D245
:101700008B4271D902383944CB1A40EA064678E751
:10171000C6F1200C03FA06F422FA0CF31C4320FA5B
:101720000CF701FA06F34FEA144E21FA0CF11F43AD
:101730003B0CB1FBFEF91FFA84F80EFB191143EACA
:10174000014109FB08FA8A4502FA06F200FA06F39B
:1017500008D9611809F1FF3048D28A4546D9A9F164
:1017600002092144A1EB0A01BFB2B1FBFEF00EFB5E
:10177000101147EA014700FB08F8B84507D9E719F7
:1017800000F1FF312ED2B8452CD90238274440EA67
:101790000940A7EB0807A0FB02894F45C64649460A
:1017A0001AD317D05DB1B3EB0E0267EB010707FA4E
:1017B0000CFCF2404CEA0202F740C5E90027002683
:1017C0003146BDE8F0872E4628460BE70646E9E697
:1017D0001846FDE64345E5D2B8EB020E69EB04017D
:1017E0000138DFE70846D2E760468DE78146B9E772
:1017F000664675E730464AE7ACF1020C394413E718
:1018000002383C4424E700BF704700BF80B485B075
:1018100000AF78600B467B800023FB6000237B8158
:1018200000237B810AE07B897A6813441B781A467F
:10183000FB681344FB607B8901337B817A897B8859
:10184000043B9A42EFDBFB680133FB60FB68184600
:101850001437BD465DF8047B7047000090B585B035
:1018600004AF0C2200212D4812F038FC4FF47A739B
:1018700002930C230193294B009302230022A02101
:1018800027480CF003FA0346002B04D0012108205E
:1018900000F03CFB03E00021082000F037FB1F4B69
:1018A0009C680C211D48FFF7B1FF03469C4231D0D4
:1018B0000C220021194812F011FC4FF47A730293A4
:1018C0000C230193154B009302231022A0211448EE
:1018D0000CF0DCF90346002B04D00121082000F0B5
:1018E00015FB03E00021082000F010FB0B4B9C6867
:1018F0000C210A48FFF78AFF03469C420AD00C22BB
:101900000021064812F0EAFB044B00221A60034B48
:1019100000225A6000BF0437BD4690BDC028002099
:10192000FC3D002080B584B004AF22480DF09EFC41
:101930000C212148FFF76AFF03461F4A93604FF4CA
:101940007A7302930C2301931B4B00930223002212
:10195000A0211A480CF078F80346002B04D001218E
:10196000082000F0D3FA03E00021082000F0CEFAAE
:1019700010480DF07BFC062007F0AAFA4FF47A73AA
:1019800002930C2301930C4B009302231022A021FD
:101990000A480CF059F80346002B04D00121082016
:1019A00000F0B4FA03E00021082000F0AFFA00BF15
:1019B000BD4680BD503E0020C0280020FC3D0020D8
:1019C00080B586B000AF3B4600221A605A609A602C
:1019D000DA601A615A613E4B3E4A1A603C4B002263
:1019E0005A603B4B00229A60394B0022DA60384B38
:1019F00001221A61364B04225A61354B00221A76B5
:101A0000334B01225A76324B0422DA61304B0022EA
:101A100083F820202E4B00229A622D4B0022DA629E
:101A20002B4B012283F83020294B00225A63284B8C
:101A3000002283F83820264807F0A4FC0346002B38
:101A400001D002F0A2FD244B3B6006237B600723FC
:101A5000BB607F23FB6004233B6100237B613B462B
:101A600019461B4808F0C8FA0346002B01D002F0C3
:101A70008CFD1A4B3B600C237B603B461946144897
:101A800008F0BAFA0346002B01D002F07EFD144B99
:101A90003B6012237B603B4619460D4808F0ACFAC8
:101AA0000346002B01D002F070FD0E4B3B60182363
:101AB0007B603B461946064808F09EFA0346002B19
:101AC00001D002F062FD00BF1837BD4680BD00BFE7
:101AD000CC280020000004500002B0250004002A99
:101AE0000008302E0010603280B5A2B000AF7860E0
:101AF00007F1740300221A605A609A60DA601A6172
:101B000007F1140360220021184612F0E7FA7B68FF
:101B10001B683F4A934276D14FF480437B614FF07C
:101B20008053BB660323BB610523FB610D233B622E
:101B300007237B620223BB620223FB624FF08073A8
:101B40003B6307F1140318460EF0E8FB0346002B35
:101B500001D002F01AFD2F4BDB6C2E4A43F40053E8
:101B6000D3642C4BDB6C03F400533B613B69294B82
:101B7000DB6C284A43F00103D364264BDB6C03F093
:101B80000103FB60FB68F0237B670B23BB6700232B
:101B9000FB6707F1740319464FF090400BF054FABD
:101BA0001D4B1E4A1A601C4B00225A601A4B002221
:101BB0009A60194B0022DA60174B80221A61164B8B
:101BC0004FF400725A61144B4FF400629A61124B49
:101BD0002022DA61104B00221A620F480AF048FBFB
:101BE0000346002B01D002F0D0FC7B680A4ADA647D
:101BF000094A7B6893620022062112200AF0D0FA7B
:101C000012200AF0F9FA00BF8837BD4680BD00BF38
:101C1000000004500010024030290020080002405B
:101C200080B500AF284B294A1A60274B0A225A6018
:101C3000254B00229A60244B0022DA60224B4FF49D
:101C400040221A61204B4FF480125A611E4B012230
:101C50001A761D4B01225A761B4B01229A761A4B9B
:101C60000022DA76184B00221A77174B00225A7797
:101C7000154809F005FA0346002B01D002F085FC57
:101C8000134B00225A61124B00229A61104B012221
:101C9000DA610F4B00221A600D4B00225A600C4B88
:101CA00000229A600A4B0022DA60094B00221A6176
:101CB000074B01221A62064B0E225A62044902485F
:101CC00009F026FC00BF80BDA02900200064004070
:101CD0007829002080B58AB000AF786007F114033E
:101CE00000221A605A609A60DA601A617B681B6889
:101CF000274A934248D1274B9B6D264A43F00073F5
:101D00009365244B9B6D03F000733B613B69214B52
:101D1000DB6C204A43F00203D3641E4BDB6C03F000
:101D20000203FB60FB684FF440737B610223BB61DD
:101D30000023FB6103233B6209237B6207F1140349
:101D4000194615480BF080F90022012113200AF0F2
:101D500027FA13200AF050FA0022012114200AF079
:101D60001FFA14200AF048FA0022012115200AF077
:101D700017FA15200AF040FA0022012116200AF075
:101D80000FFA16200AF038FA00BF2837BD4680BD8A
:101D900000640040001002400004004880B582B09A
:101DA00000AF78607B681B680E4A934216D10E4BD9
:101DB0009B6D0D4A23F0007393654FF440710B48FF
:101DC0000BF08AFB13200AF02FFA14200AF02CFAE9
:101DD00015200AF029FA16200AF026FA00BF083763
:101DE000BD4680BD00640040001002400004004871
:101DF000B0B584B000AF2D4B1B682D4A1360002393
:101E0000FB600023BB6000237B60284B1B68FB60EA
:101E1000284B1B68BB60284B1B687B607B680A22D1
:101E20002649184612F03AF92449254812F0A2FE34
:101E3000BB680A222149184612F030F91F49204890
:101E400012F098FEFB680A221C49184612F026F987
:101E50001A491B4812F08EFE3C220021194812F04C
:101E60003DF9184B184A1188927819809A701449D4
:101E7000144812F07FFE1348FEF7B4FD03461A46DD
:101E8000104B1344114A1D4614460FCC286069605C
:101E9000AA60EB6003CC286169612388A2782B8358
:101EA0001346AB7600BF1037BD46B0BD9075FF1F1F
:101EB000F41600209475FF1F9875FF1F3400002052
:101EC00000000020F8160020288801082C8801084E
:101ED00080B582B000AF0C4B9B6C0B4A43F0010302
:101EE0009364094B9B6C03F001037B607B680022C9
:101EF00006210B200AF054F90B200AF07DF900BFEF
:101F00000837BD4680BD00BF0010024080B483B0DA
:101F100000AF03460A46FB711346BB71FB79092BE0
:101F200026D801A252F823F0511F0008711F0008A3
:101F3000711F0008711F0008711F0008711F000841
:101F4000711F0008591F0008611F0008691F000861
:101F5000BB790B4A13600CE0BB79094AD36108E0F6
:101F6000BB79074A136204E0BB79054A536200E07B
:101F700000BF00BF0C37BD465DF8047B704700BF53
:101F8000C829002080B58AB000AF07F114030022F1
:101F90001A605A609A60DA601A61494BDB6C484AF1
:101FA00043F00403D364464BDB6C03F004033B6152
:101FB0003B69434BDB6C424A43F08003D364404BA4
:101FC000DB6C03F08003FB60FB683D4BDB6C3C4A41
:101FD00043F00103D3643A4BDB6C03F00103BB60B5
:101FE000BB68374BDB6C364A43F00203D364344B97
:101FF000DB6C03F002037B607B6800224FF400512E
:1020000030480BF097FB002241F209012E480BF0FB
:1020100091FB00224FF400414FF090400BF08AFBFF
:102020004FF400537B610123BB610023FB6100235C
:102030003B6207F11403194622480BF005F841F200
:1020400009037B610123BB610023FB6100233B6229
:1020500007F1140319461C480AF0F6FF4FF4004339
:102060007B610123BB610023FB6100233B6207F11D
:10207000140319464FF090400AF0E6FF30237B61CD
:102080004FF44413BB610023FB6107F114031946AD
:102090000D480AF0D9FF002202210A200AF080F838
:1020A0000A200AF0A9F80022002117200AF078F887
:1020B00017200AF0A1F800BF2837BD4680BD00BF39
:1020C00000100240000800480004004880B483B0BB
:1020D00000AF78607B68DB6903F08003802B01D15F
:1020E000012300E0002318460C37BD465DF8047B51
:1020F000704780B483B000AF78600B46FB70FB780C
:102100009AB27B681A8500BF0C37BD465DF8047B28
:1021100070470000B0B500AF96220021C54811F00D
:10212000DDFF23220021C44811F0D8FF0A2200213C
:10213000C24811F0D3FF40F68C220021C04811F0B4
:10214000CDFF4FF461723F21BE4811F0C7FF082256
:102150003F21BD4811F0C2FF0D223F21BB4811F0C5
:10216000BDFF4FF448720021B94811F0B7FF0322B8
:102170000021B84811F0B2FFB4220021B64811F096
:10218000ADFFB4220021B54811F0A8FFB422002110
:10219000B34811F0A3FFB349AF4812F0EBFCAE48CF
:1021A000FEF720FC03461A46AB4B1344AE491A46D1
:1021B0000B461B881380AD49A74812F0DBFCA648EC
:1021C000FEF710FC03461A46A34B1344A6491A46D1
:1021D0000B461B881380A048FEF704FC03461A46F2
:1021E0009D4B1344A2491A460B4603CB1060516025
:1021F00019889B7811819372984A9E4B14461D460C
:102200000FCD0FC40FCD0FC40FCD0FC495E80F0035
:1022100007C4238002341B0C23709048FEF7E2FBB6
:1022200003461A468D4B1344934A118892781980BD
:102230009A7064220021914811F050FF90498F4814
:1022400012F098FC8D48FEF7CDFB03461A468B4BE7
:10225000134485491A460B461B8813808748FEF7AE
:10226000C1FB03461A46854B1344864A1D46144655
:102270000FCC28606960AA60EB602388A2782B826B
:102280001346AB747D48FEF7ADFB03461A467B4B05
:10229000134475491A460B461B8813807748FEF78E
:1022A000A1FB03461A46754B134477491A460B4661
:1022B0001B8813807148FEF795FB03461A466F4B47
:1022C0001344724A1068186012791A716B48FEF74D
:1022D00089FB03461A46694B1344674A1188927872
:1022E00019809A7096220021694811F0F7FE694919
:1022F000674812F03FFC6648FEF774FB03461A4637
:10230000634B134458491A460B461B881380624995
:10231000624812F04BFC61495D4812F02BFC5C48AE
:10232000FEF760FB03461A46594B13445C4A10689B
:1023300018605748FEF756FB03461A46544B1344A1
:10234000574A106818605248FEF74CFB03461A467D
:102350004F4B1344534A10681860C822002152485A
:1023600011F0BCFE5149504812F004FC4E48FEF7F3
:1023700039FB03461A464C4B13443B491A460B465D
:102380001B8813804848FEF72DFB03461A46464B30
:102390001344474A1D4614460FCC28606960AA6062
:1023A000EB602068286123792B753F48FEF71AFB04
:1023B00003461A463C4B13443E4A10681860928804
:1023C0009A802748FEF70EFB03461A46244B134417
:1023D000294A1188927819809A70164B03F5965302
:1023E0001E3300221A70134B002283F8AE2F114BBC
:1023F000002283F8B02F0F4B002283F8862F0D4B5D
:102400000022C3F8A82F0B4B002283F8842F094B1E
:10241000002283F8832F074B052283F8852F054B75
:10242000002283F8882F034B4FF47A72C3F8902F61
:1024300042E000BF1C2B0020522C0020482C002022
:1024400013300020752C0020F92F0020CD3A0020F9
:10245000DA3A00200130002010030020C4030020DD
:102460007804002028020020E08801084C070020A2
:10247000E4880108F0880108308901086805002017
:10248000580500203490010834890108489001085B
:10249000DC050020CC05002000000020AC18002046
:1024A000388901083C890108840600207406002050
:1024B000B0900108408901081F4B204A1A60204B48
:1024C0000022C3F89C2F1E4B002283F88A2F1C4B3E
:1024D000002283F8AC2F1A4B012283F8AF2F184B40
:1024E000012283F8AD2F174B4FF4FA721A60164B86
:1024F00001221A70154B00221A7000224FF400417D
:102500004FF090400BF016F9114B00221A70114B4E
:1025100000221A60104B1B7843F04003DAB20E4BD6
:102520001A700E4B00221A700D4B00221A700D4BC0
:1025300000221A6000BFB0BDA028002020BF02000A
:102540001C2B0020A428002015190020441900206D
:10255000DE1800201019002046190020451900201F
:10256000351700203817002090B5ADF5965D85B081
:1025700041F2D0276F44BD4BD3F8903F002B40F081
:10258000A481BA4B93F8AE3FDBB2092B03D9B74B0A
:10259000002283F8AE2FB54B93F8AE3FDBB2092B88
:1025A00000F28B8101A252F823F000BFD52500086C
:1025B00065260008712700088D270008F12600080D
:1025C00031270008D5260008672800088D28000854
:1025D000A9280008A54B93F8B03F002B0FD101228A
:1025E0004FF40051A2480BF0A5F8A04B41F6583229
:1025F000C3F8902F9D4B012283F8B02F27E09B4B0F
:1026000093F8B03F012B13D100224FF400519848AA
:102610000BF090F8954B4FF47A62C3F8902F934BE0
:10262000012283F8AE2F914B022283F8B02F0EE0E7
:102630008E4B93F8B03F022B09D18C4B93F8AE3FF1
:10264000DBB2002B03D1894B002283F8B02F874BDC
:1026500093F8B03F022B40F23381844B002283F881
:10266000B02F2DE1814B93F8AD3FDBB2052B02D1AA
:10267000FFF750FD25E17D4B93F8AF3F192B1BD1A0
:102680007C4B1B78012B0ED1784B142283F8AF2F93
:10269000764B022283F8AE2F774B01221A70754BCE
:1026A00000221A700DE1714B142283F8AF2F6F4B8B
:1026B000022283F8AE2F04E16C4C684604F110034B
:1026C00041F2D022194611F0FBFC94E80F0000F013
:1026D00007F9F6E0654C684604F1100341F2D02298
:1026E000194611F0EDFC94E80F0000F0F9F8E8E06D
:1026F000614B1B78012B0DD15C4C684604F1100333
:1027000041F2D022194611F0DBFC94E80F0000F0F2
:10271000E7F8D6E0554B142283F8AF2F534B022233
:1027200083F8AE2F514B4FF4FA62C3F8902FC8E0F4
:10273000524B1B78012B0DD14C4C684604F1100311
:1027400041F2D022194611F0BBFC94E80F0000F0D2
:10275000C7F8B6E0454B142283F8AF2F434B022253
:1027600083F8AE2F414B4FF4FA62C3F8902FA8E0E4
:102770003E4C684604F1100341F2D022194611F094
:102780009FFC94E80F0000F0ABF89AE03C4803F09F
:1027900060FC0346002B07D1394B5B68384A023393
:1027A00052F82330002B0DD1364803F021FD0346AB
:1027B000002B4ED1334B5B68324A023352F8233040
:1027C000002B46D0304B1B78002B0AD1274B93F8B7
:1027D000AF3F202B05D101F081F82B4B01221A705D
:1027E00036E0294B1B78012B08D1204B93F8AF3FE3
:1027F000222B03D1244B00221A7029E0224B1B7894
:10280000002B0AD1194B93F8AF3F192B05D101F0DA
:1028100065F81D4B01221A701AE01B4B1B78012B27
:1028200008D1124B93F8AF3F222B03D1164B002255
:102830001A700DE00D4C684604F1100341F2D022ED
:10284000194611F03DFC94E80F0000F049F809E04A
:1028500008E0064B142283F8AF2F044B022283F8C2
:10286000AE2F2EE02DE0FFF755FC2AE01C2B0020B8
:102870000008004849170020E0180020DF18002059
:10288000EC2A0020BC2A002048170020114C684682
:1028900004F1100341F2D022194611F011FC94E822
:1028A0000F0000F01DF80CE00A4B032283F8AE2F56
:1028B000084B192283F8AF2F03E0FFF72BFC00E051
:1028C00000BF054B054A1A6000E000BF0437BD4653
:1028D00090BD00BF1C2B0020A028002020BF0200BC
:1028E00090B591B000AF9B4B93F8AC3FDBB2002B9F
:1028F00004D0012B00F0E58000F0E6BF954B93F883
:10290000AD3FDBB2012B40F08380934B00221A6075
:10291000904B93F8AF3F222B28D1904B1B78012B83
:1029200008D18F4B5B688E4A023352F823308D4AB0
:1029300013600BE0894B1B78022B07D18A4B5B6835
:10294000894A023352F82330864A1360854B1B684C
:10295000002B07D0834B1B681846FEF743F803464D
:10296000132B3AD87F4B814A1A6036E0794B93F8A3
:10297000AF3F1A2B28D1794B1B78012B08D1784B0C
:102980005B68774A023352F82330764A13600BE0D3
:10299000724B1B78022B07D1734B5B68724A023370
:1029A00052F823306F4A13606E4B1B68002B07D020
:1029B0006C4B1B681846FEF715F80346132B0CD812
:1029C000684B6A4A1A6008E0624B93F8AF3F684A66
:1029D0001B0113441B68634A1360624B1B68184653
:1029E000FEF700F80346634A13605E4B1A685A4BC1
:1029F0001B68591C5848016013441B7819465E48EF
:102A0000FFF777FB534B022283F8AD2F00F059BF3D
:102A1000504B93F8AD3FDBB2022B4ED15648FFF737
:102A200055FB0346002B00F04C874B4B1A68514B6B
:102A30001B689A420ED24B4B1A68474B1B68591CB5
:102A40004548016013441B7819464B48FFF751FB7A
:102A500000F037BF404B00221A60484B4FF4FA7227
:102A60001A60444B00221A603A4B012283F8AC2FC3
:102A7000384B93F8AF3F3E4A1B01134408331B68A1
:102A8000344AC2F8A43F334B93F8AF3F1D2B09D013
:102A9000304B93F8AF3F1E2B04D02E4B93F8AF3F33
:102AA0001F2B05D1364B43F698221A6000F009BF60
:102AB000334B00221A6000F004BFFFF72BFB00F03D
:102AC00000BF2E4B1B68002B40F0A386214BD3F890
:102AD000A43F002B00F09D862A4B1B68012B40F081
:102AE0009886274B1B68002B40F093862649274881
:102AF00012F089F838633B6B002B51D024492348EE
:102B000012F081F8F862FB6A002B1FD021491F48A0
:102B100012F079F80346002B14D0FA6A3B6BD31AF3
:102B2000BB62962200211C4811F0D8FA3B6B591E5B
:102B3000BB6A03331A46184811F0C2FA174B012238
:102B40001A7030E0154B00221A702CE0134B002253
:102B50001A7028E01C2B00203819002034170020A0
:102B6000EC2A00203C190020BC2A0020F816002086
:102B7000C890010840190020003801408428002036
:102B80009C2800207C19002048890108133000206F
:102B90004C89010800000020580000203517002053
:102BA000C34B00221A70C34B93F8AF3FC24A1B01BC
:102BB000134404331B681946C04812F024F8034636
:102BC000002B00F01486BB4B93F8AF3F222B00F292
:102BD000CA8501A252F823F0652C0008712C000868
:102BE000CF2C0008DB2C0008B72D0008372D00087B
:102BF0007D2C0008F92D00083B2E0008472E000808
:102C0000532E00085F2E00086B2E0008673700085F
:102C1000772E0008832E00088B2E0008972E0008C0
:102C2000A32E000867370008052F0008C5300008EC
:102C3000CF300008D9300008E3300008A72F000883
:102C4000F3300008473400086737000851340008A3
:102C5000A1350008D5350008B12F0008E12F000884
:102C6000D72F0008934B012283F8892F00F086BDEF
:102C7000904B012283F8892F00F080BD90498F4846
:102C800011F0C1FFF8608F48FDF7ACFE03461A460D
:102C900000218C4811F022FAFB6803F10A04FB685A
:102CA0000A338949184612F0F9FD03461846FDF724
:102CB00099FE03461A462146824811F001FA00F0B7
:102CC000C1FF7C4B012283F8892F00F057BD794B5F
:102CD000012283F8892F00F051BD7C49774811F01B
:102CE00092FF38607A48FDF77DFE03461A460021C0
:102CF000774811F0F3F93B68DC1D3B6807337549F1
:102D0000184612F0CBFD03461846FDF76BFE03464E
:102D10001A4621466E4811F0D3F96D4811F077F943
:102D200002460B466C49C1E90023624B012283F83D
:102D3000892F00F023BD6949604811F064FFB86035
:102D4000BB689C1D6649B86812F0A8FD034618468A
:102D5000FDF748FE03461A462146624811F0B0F9D5
:102D6000544BB3F82C21604B1A805F4811F04BF99B
:102D70000346DAB25D4B1A704E4B93F8AE3FDBB2AE
:102D8000062B12D14B4B41F28832C3F8902F494B9E
:102D9000032283F8AE2F474B192283F8AF2F454B00
:102DA000002283F8892F00F0E9BC424B012283F80E
:102DB000892F00F0E3BC4E49404811F024FF034640
:102DC000002B13D02C213D4811F0E3FE78607B6886
:102DD00001331B78302B05D1FFF79CF9454B0122BD
:102DE0001A7003E07B6801331B78312B314B0122D1
:102DF00083F8892F00F0C2BC3F49304811F003FF2F
:102E000038610F2200213D4811F068F93B6903F158
:102E10000A043B49386912F041FD03461846FDF7A4
:102E2000E1FD03461A462146344811F049F9214B89
:102E3000012283F8892F00F0A1BC1E4B012283F8E8
:102E4000892F00F09BBC1B4B012283F8892F00F0D7
:102E500095BC184B012283F8892F00F08FBC154BCD
:102E6000012283F8892F00F089BC124B012283F8DC
:102E7000892F00F083BC0F4B012283F8892F00F0CB
:102E80007DBC0C4B012283F8892F0A4B012283F869
:102E9000892F00F073BC074B012283F8892F00F0C3
:102EA0006DBC044B012283F8892F00F067BC00BF82
:102EB000351700201C2B0020C8900108133000207B
:102EC00074880108B0070020508901085C88010857
:102ED000C40F00203C8901084017002054890108D4
:102EE0005C890108482C0020181900201A190020BC
:102EF00060890108491700207C880108B40F002070
:102F000034890108B049B14811F07DFE78619622FC
:102F10000021AF4811F0E2F87B69002B0DD0AD49DC
:102F2000786912F0BBFC03461846FDF75BFD0346CB
:102F30001A467969A64811F0C3F8A74B1B68012B04
:102F400024D1A64B1B68012B13D1A54803F081F8AF
:102F50000346012B0DD101F033F89D4B1B2283F862
:102F6000AF2F9B4B082283F8AE2F9E4B00221A7086
:102F700007E0974B052283F8AF2F954B062283F885
:102F8000AE2F934B002283F8892FF4E3924B1B68FA
:102F9000002B40F0F0838E4B012283F8892F8E4B5B
:102FA00001221A60E7E38A4B012283F8892FE5E3C7
:102FB0008D49864811F027FE38623B6A1A1D844B02
:102FC00003F2E5431188927819809A70804B0122B0
:102FD00083F8892FD2E37E4B012283F8892FCDE33A
:102FE00081497A4811F00FFE78627B6A1A1D784B8E
:102FF00003F2E5431188927819809A707B4811F0AA
:1030000002F80346C82B2AD1794B1B78012B03D138
:10301000734802F0BDFF06E0754B1B78022B02D10E
:10302000744803F084F86A4B4FF4FA62C3F8902FA7
:10303000714B00221A70664B192283F8AF2F644B34
:10304000202283F8AF2F624B002283F8892F674834
:1030500010F0D9FF03461A46684B1A6031E0634806
:1030600010F0D1FF03461A46644B1A60584B93F890
:103070008A3F0133DAB2564B83F88A2F544B93F8C8
:103080008A3F042B05D9FFF745F85D4B01221A70E2
:1030900017E0564810F0B7FF03461A46574B1A6020
:1030A0004B4B192283F8AF2F494B202283F8AF2FC7
:1030B000474B0022C3F8A42F454B002283F8892FE9
:1030C00000BF5BE3424B012283F8892F56E3404B5C
:1030D000012283F8892F51E33D4B012283F8892F88
:1030E0004CE3484B01221A70394B012283F8892F97
:1030F00044E30023FB63002387F83B300023FB639A
:103100001AE0334AFB6B134403F2F7431B78002B9E
:103110000CD12F4AFB6B134403F2F74321221A70A0
:1031200097F83B30013387F83B3002E0002387F803
:103130003B30FB6B0133FB63FB6B40F68B2293420E
:1031400003D897F83B30012BDBD900237B632E4952
:103150001E4812F0A3FB7863D9E008222B49786B54
:1031600011F02CFD0346002B0AD10F220021284824
:1031700010F0B4FF0D22796B254810F0A1FFC1E0DB
:1031800003222449786B11F019FD0346002B49D125
:103190007B6B5C1D0F49786B11F035FD02467B6B34
:1031A0000533D31A1A4621461B4810F089FF084BF5
:1031B000B3F82C21194B1A80184810F024FF03464D
:1031C000DAB2174B1A709DE06889010813300020AD
:1031D0001C2B00203089010810190020381700200E
:1031E000EC2A0020351700207089010801300020EA
:1031F00034170020BC2A002048170020E4180020C3
:1032000049170020451900207489010878890108B0
:103210000430002084890108482C0020181900205F
:103220001A1900200722B349786B11F0C7FC034636
:10323000002B4FD10F220021AF4810F04FFF7B6BC6
:1032400003F109042C21786B11F0A3FC02467B6B7F
:103250000933D31A1A462146A74810F031FFA7496F
:10326000A548FDF7B5FB0346002B0DD0A449A248A5
:10327000FDF7AEFB0346002B06D0A2499E48FDF7A2
:10328000A7FB0346002B07D19F4B1B7843F002039B
:10329000DAB29D4B1A7035E09C499748FDF798FBD0
:1032A0000346002B06D09A499348FDF791FB03464D
:1032B000002B07D1944B1B7843F00403DAB2924BF6
:1032C0001A701FE0904B1B7823F00703DAB28E4B85
:1032D0001A7017E009228F49786B11F06FFC0346D2
:1032E000002B0FD17B6B03F10B048B49786B11F032
:1032F0008AFC02467B6B0B33D31A1A462146874859
:1033000011F06EFC8649002012F0C8FA78637B6BDE
:10331000002B7FF422AF83498348FDF759FB034616
:10332000002B02D1814B01221A70804B1B78012B9C
:103330005AD17E4B00221A707D4B01221A707D4BB0
:103340001B78012B03D17C4802F022FE06E0794B6A
:103350001B78022B02D1794802F0E9FE754B1B78ED
:10336000022B20D1764B03F5005318331B78002B2A
:1033700019D0734B1B7D013BDAB2714B1A75704B40
:103380001B7D002B0FD16E4B03F500531833002229
:103390001A706B4B1B686B4A5360694B5B68694AD8
:1033A0001360FEF7BFFA634B00221A70664B0022CF
:1033B0001A70654B00221A70584B4FF4FA62C3F82A
:1033C000902F614B00221A70544B192283F8AF2FB3
:1033D000524B002283F8892F534810F014FE034605
:1033E0001A465A4B1A602DE04F4810F00CFE034667
:1033F0001A46564B1A60494B93F88A3F0133DAB2AA
:10340000464B83F88A2F454B93F88A3F042B05D906
:10341000FEF780FE4E4B01221A7013E0424810F076
:10342000F2FD03461A46494B1A603C4B192283F8B9
:10343000AF2F3A4B0022C3F8A42F384B002283F859
:10344000892F00BF9AE1354B012283F8892F95E13E
:103450004049414811F0D7FBB861BB69002B00F02F
:1034600092803E48FDF7BEFA03461A4600213B48CB
:1034700010F034FEBB691C1DBB6904332649184695
:1034800012F00CFA03461846FDF7ACFA03461A464A
:103490002146324810F014FE3048FDF7A3FA0346E7
:1034A0002F4A13602D4810F0AEFD03461A461B4B01
:1034B000C3F8A02F194BD3F8A03F2A4A934255D8FE
:1034C000294B01221A70154BD3F8A03F002B0AD0CC
:1034D000124BD3F8A03F184600F09EFC0F4B012280
:1034E00083F8892F4AE1062001F0E4FE00F098FD00
:1034F00044E100BF88890108B40F002090890108C9
:1035000098890108A089010846190020A8890108A6
:10351000B4890108C0890108308901081C2B0020EA
:1035200074890108CC890108043000201419002096
:10353000DE18002034170020EC2A0020BC2A0020CE
:10354000843E0020C028002048170020E8180020F2
:1035500049170020DC890108133000209C0F00204F
:103560000419002030EC0100EC180020BB4B0022B5
:1035700083F8892FB94B032283F8AE2FB74B19225A
:1035800083F8AF2FFAE0B54B002283F8892FB34BB5
:10359000032283F8AE2FB14B192283F8AF2FEDE051
:1035A000AF49B04811F02FFBF861FB69002B04D044
:1035B000AA4B012283F8892FE0E0A84B002283F870
:1035C000892FA64B032283F8AE2FA44B192283F830
:1035D000AF2FD3E0A44B1B78002B00F0BC804FF43E
:1035E00000414FF090400AF0D5F8A04B1B68002B2B
:1035F00071D14FF4FA6200219D4810F06FFD9C4A92
:10360000964B104603F202534FF4FA62194610F03B
:1036100057FD984B1B68002B36D104F0D7FF05F0FF
:1036200051F903461946002005F0D2F80346012B54
:1036300005D0082001F03EFE00F0F2FC9EE00121E2
:103640008B4804F0D5FF03468B4A13608A4B1B68F6
:10365000012B13D1874B01221A60804BD3F8A03F76
:10366000184600F0D9FB40F68C2200217D4810F06E
:1036700035FD7A4B1E2283F8AF2F27E0092001F099
:1036800019FE00F0CDFC79E00021794804F0B0FF8C
:103690000346794A1360784B1B68012B10D16F4B9E
:1036A000D3F8A03F184600F0B7FB40F68C2200216B
:1036B0006C4810F013FD694B1E2283F8AF2F05E014
:1036C000092001F0F7FD00F0ABFC57E0634B00224E
:1036D00083F8892F51E0654B1B68012B4DD1654B59
:1036E0001B68002B01D104F071FF0021604804F039
:1036F0007FFF0346604A13605F4B1B68012B24D198
:1037000005F0E0F80346184605F0FAF80346002BEA
:1037100015D1554B00221A70564B1B68012B02D154
:10372000544B00221A60002001F0C4FD534B0122CB
:103730001A7000F075FC4F4B01221A601DE0092041
:1037400001F0B8FD00F06CFC18E0092001F0B2FDBA
:1037500000F066FC12E000224FF400414FF0904070
:1037600009F0E8FF09E000224FF400414FF09040DB
:1037700009F0E0FF02E000BF00E000BF374B00228D
:10378000C3F8A82F354B012283F8AD2F334B00220D
:1037900083F8AC2F314B052283F8852F2F4B002265
:1037A000C3F8A42F364B00221A602C4B0022C3F81A
:1037B000A82F2A4B93F8AF3F1F2B05D040F68C2241
:1037C0000021284810F08AFC244B93F8893F012BF4
:1037D00075D1224B4FF47A72C3F8902F1F4B93F898
:1037E000AF3F0133DAB21D4B83F8AF2F67E01B4BBD
:1037F0000022C3F8A82F194B012283F8AC2F40F602
:103800008C220021174810F069FC1D4B00221A6021
:1038100055E0124BD3F8A43F002B54D10F4B93F833
:10382000853F013BDAB20D4B83F8852F0B4B93F8A4
:10383000853F002B28D140F68C220021094810F04A
:103840004DFC064B93F8AE3FDBB2032B02D10D4B80
:1038500001221A70FEF75EFC29E000BF1C2B00203D
:10386000E489010813300020EC180020FC18002027
:10387000CC070020001900200C1900203C17002064
:103880007C19002049170020114B012283F8AD2F2D
:103890000F4B002283F8AC2F40F68C2200210D48FC
:1038A00010F01CFC0A4B4FF47A72C3F8902F084BAF
:1038B0000022C3F8A42F084B00221A6003E000BFC7
:1038C00001E000BF00E000BF00BF4437BD4690BD2F
:1038D0001C2B0020133000207C190020B0B588B0CC
:1038E00000AF0023BB619D4802F0B3FB0346002BF1
:1038F00013D19A4B5B68994A023352F82330002B5C
:103900000BD0974B01221A70944B5B68934A023399
:1039100052F82330934A136018E0934802F068FC91
:103920000346002B12D1904B5B688F4A023352F84A
:103930002330002B0AD08A4B02221A708A4B5B6814
:10394000894A023352F82330864A1360854B1B683C
:103950001846FDF747F8F861FB69002B03D183484F
:10396000FDF740F8F86100233B603B1D00221A6020
:103970005A60C3F8072000237B6100233B610023CA
:10398000FB73062200217A4810F0A8FBFA220021DE
:10399000784810F0A3FBFB690A227549184610F01D
:1039A0007DFB744A744B14461D460FCD0FC495E839
:1039B00003002060043421706E48FDF713F80346BD
:1039C0001A466C4B13446D491A460B461B881380EC
:1039D000644B1B685F21184611F0DBF878617B6946
:1039E00001332C21184611F0D4F838613A697B690B
:1039F000D31AFB733B460F220021184610F06EFBD2
:103A00007B69591CFB7B013B1A463B46184610F06C
:103A100057FB534B1B78012B66D13B465849184640
:103A2000FCF7D6FF0346002B14D15248FCF7DAFF0F
:103A300003461A464F4B1344524A1D4614460FCCB8
:103A400028606960AA60EB6003CC28616961237813
:103A50002B76B6E03B464C491846FCF7B9FF0346C7
:103A6000002B13D14348FCF7BDFF03461A46414BD8
:103A70001344464A1D4614460FCC28606960AA606C
:103A8000EB6020682861A388AB829AE03B464049FE
:103A90001846FCF79DFF0346002B11D13548FCF773
:103AA000A1FF03461A46334B13443A4A1D461446B7
:103AB0000FCC28606960AA60EB6023882B8280E0CD
:103AC0002C48FCF78FFF03461A462A4B13442F4A13
:103AD0001D4614460FCC28606960AA60EB60206820
:103AE0002861A388AB826CE01D4B1B78022B55D15B
:103AF0000023BB611B4B1B682149184611F083F85A
:103B0000B861BB69002B13D11A48FCF76BFF034661
:103B10001A46184B1344204A1D4614460FCC286001
:103B20006960AA60EB602068286123792B7548E002
:103B30001048FCF757FF03461A460E4B1344114A30
:103B40001D4614460FCC28606960AA60EB6003CC68
:103B50002861696123782B7633E000BFEC2A0020CE
:103B60003417002054000020BC2A0020F816002042
:103B7000A40F00204C170020EC890108E088010800
:103B8000048A010868900108108A01085090010811
:103B9000188A010884900108989001082348FCF7CE
:103BA00021FF03461A46214B1344214A1D46144661
:103BB0000FCC28606960AA60EB6020682861A38848
:103BC000AB821A48FCF70EFF03461A46174B134404
:103BD000184A1188927819809A701749134810F082
:103BE000C9FF1248FCF7FEFE03461A460F4B13446A
:103BF000124A1C4615460FCD20606160A260E3604A
:103C00000FCD20616161A261E3610848FCF7EAFE23
:103C100003461A46054B1344094A118892781980C5
:103C20009A7000BF2037BD46B0BD00BF4C170020C2
:103C3000509001081C8A0108A40F0020208A010866
:103C40003089010880B500AF654B1B68012B00F07F
:103C5000C580644B1B78303BDBB21A46920013449C
:103C60005B00DAB25F4B5B781344DBB2303BDAB215
:103C70005D4B1A705B4B1B78A3F1300213469B001F
:103C800013445B001A46574B5B78303B13441A468B
:103C9000564B1A60534BDB78A3F1300213469B005E
:103CA00013445B001A464F4B1B79303B13441A46B2
:103CB0004F4B1A604B4B9B79A3F1300213469B008C
:103CC00013445B001A46474BDB79303B13441A46DA
:103CD000484B1A60434B5B7AA3F1300213469B00BA
:103CE00013445B001A463F4B9B7A303B13441A4601
:103CF000414B1A603B4B1B7BA3F1300213469B00E8
:103D000013445B001A46374B5B7B303B13441A4627
:103D10003A4B1A60334BDB7BA3F1300213469B0016
:103D200013445B001A462F4B1B7C303B13441A464E
:103D3000334B1A602D4B1B68184604F0F9FE0346FE
:103D4000DAB2304BDA702A4B1B68184604F0F0FEEA
:103D50000346DAB22B4B5A70264B1B68184604F008
:103D6000E7FE0346DAB2274B9A70234B1B681846CE
:103D700004F0DEFE0346DAB2234B1A701F4B1B68B9
:103D8000184604F0D5FE0346DAB21F4B5A701C4B9E
:103D90001B68184604F0CCFE0346DAB21A4B9A7040
:103DA0001A4A184B1B681360134B1B68184A1360A0
:103DB000124B1B68164A5360114B1B68144A9360E0
:103DC0000122114913480DF0C7F801220D4911488D
:103DD0000DF078FA024B01221A6000E000BF80BDAE
:103DE00080280020B0070020201900201C19002086
:103DF00024190020281900202C1900203019002037
:103E000034190020F4650020F8650020E82A00201D
:103E100050280020603E0020B0B582B000AF78602E
:103E20007B68002B00F0AC80584B1B68002B1FD127
:103E30007B68574AA2FB0323DB09564A13607A6862
:103E4000534BA3FB0213DB094FF4FA6101FB03F3AD
:103E5000D31A514A13600A2250494FF4FA6010F005
:103E60001DF94D4B1B680A224D49184610F016F9F2
:103E70004C4A4D4B14461D460FCD0FC42B68238072
:103E800006220021494810F029F9404B1A68414B9D
:103E90001B689A4236D23D4B1B684FF4FA6202FB14
:103EA00003F30A224149184610F0F8F83F493D480B
:103EB00010F060FE3B48FCF795FD03461A46394B6F
:103EC00013443B491A460B461B8813803349354837
:103ED00010F050FE3348FCF785FD03461A46314B7F
:103EE0001344344A1188927819809A70274B1B68C2
:103EF0000133264A1360304B4FF4FA62C3F8A02F07
:103F000002233EE0234B1B684FF4FA6202FB03F3EB
:103F10000A222649184610F0C1F82449214810F019
:103F200029FE2048FCF75EFD03461A461D4B13444C
:103F30001F491A460B461B8813801949194810F06F
:103F400019FE1848FCF74EFD03461A46154B13445C
:103F5000184A1188927819809A700F4B1B68164A7C
:103F6000C2F8A03F094B00221A600A4B00221A60D7
:103F7000094B00221A60114B01221A60012300E054
:103F8000002318460837BD46B0BD00BFF01800201A
:103F9000D34D6210F4180020F8180020D80F00202C
:103FA000AC0F002078020020408A0108A40F0020F6
:103FB00034890108308901081C2B0020FC180020DE
:103FC00080B582B000AF1148FCF70CFD7860104955
:103FD000104810F0CFFD7B680A220F49184610F0F8
:103FE0005DF80D490B4810F0C5FD0A48FCF7FAFCD6
:103FF00003461A46074B1344084A10681860928813
:104000009A8000BF0837BD4680BD00BF4818002019
:1040100054020020AC020020A40F0020548A0108A2
:1040200080B500AF40F68C220021154810F056F8FC
:1040300000224FF400414FF0904009F07BFB114B00
:1040400000221A60104B00221A60104B00221A60E6
:104050000F4B00221A700F4B00221A700E4B0022D9
:104060001A600E4B002283F8892F0C4B032283F831
:10407000AE2F0A4B192283F8AF2F00BF80BD00BFBF
:1040800013300020F0180020F4180020F818002049
:1040900035170020EC180020001900201C2B0020F0
:1040A00080B500AF1B4B1C4A1A601A4B1B4A5A6062
:1040B000184B00229A60174B0122DA60154B002240
:1040C0001A61144B00225A61124B00229A61114B63
:1040D0000022DA610F4B00221A620E4809F09AFBA7
:1040E0000346002B01D000F050FA002109480AF0E5
:1040F00053FF0346002B01D000F047FA002105488A
:104100000AF0BAFF0346002B01D000F03EFA00BFD0
:1041100080BD00BFFC3D002000540040EC9C90108E
:1041200080B5A2B000AF786007F1740300221A6076
:104130005A609A60DA601A6107F114036022002164
:1041400018460FF0CBFF7B681B68274A934247D184
:1041500040237B6100237B6407F1140318460CF0B5
:10416000DDF80346002B01D000F00FFA1F4BDB6C8B
:104170001E4A43F00203D3641C4BDB6C03F00203C2
:104180003B613B69C0237B671223BB670023FB674E
:104190000323C7F880300423C7F8843007F1740381
:1041A0001946134808F050FF104B9B6D0F4A43F41B
:1041B000001393650D4B9B6D03F40013FB60FB68CC
:1041C000002204211F2007F0EBFF1F2008F014F845
:1041D00000220421202007F0E3FF202008F00CF843
:1041E00000BF8837BD4680BD00540040001002402B
:1041F0000004004880B500AF0B4B0C4A1A600A4B14
:1042000006225A60084B40F6FF72DA60064B40F611
:10421000FF729A6004480AF09BFF0346002B01D00E
:1042200000F0B3F900BF80BD503E002000300040D8
:1042300080B489B000AF78607B68FB60FB6853E8AE
:10424000003FBB60BB6843F02003FB617B68FA69F9
:10425000BA617B617969BA6941E800233B613B69D6
:10426000002BE9D100BF00BF2437BD465DF8047BB9
:104270007047000080B500AF04F0B5FD00F034F9E0
:10428000FDF780FEFDF724FEFDF79AFBFDF7C8FC65
:10429000FFF7B0FFFFF704FF01F0C6FF02F02EFEAC
:1042A00003F096F803F0F8F903F0EEFA03F072FA6F
:1042B000FDF79EFD75480EF041FC7548FFF7B8FF0D
:1042C0007448FFF7B5FF744B002283F8B02F734B8F
:1042D0004EF660221A60724B1B7863F07F03DAB2ED
:1042E0006F4B1A706F4B00225A606E4B00221A609F
:1042F000FDF7B4FA6B4B1B686B4A5360694B5B6804
:10430000694A1360002002F0F5FB02F06BFD664B7A
:1043100003F50053183300221A70634B03F5005362
:10432000173300221A70604B03F500531933002233
:104330001A705E4801F0D4FD5D4801F0A5FE5D48AD
:104340000AF094FF4FF480515B4809F023FA5B4B6D
:104350001B78002B07D003F04DFD584B00221A703C
:10436000012000F0A7FF03F01FFC01F0F1FF03F0B4
:10437000E9FB03F025FF524B1B78002B07D04B487D
:1043800001F067FE0346012B01D102F0FFFF434B12
:104390001B68002B0ED14B4B1B68002B0AD100F081
:1043A00005F903461946414801F0AAFD3B4B42F28C
:1043B00010721A60384BD3F8903F434A934204D9A5
:1043C000354B4FF4FA62C3F8902F404B1B68002B1B
:1043D00001D1FDF79FFEFEF7C7F83D4B1B78012B7F
:1043E00001D103F0D1FA3B4B1B68002BA7D100226F
:1043F0000821314809F09EF9374B1B78032B10D860
:10440000364B1B78012B0CD14FF400414FF09040FC
:1044100009F0C0F9304B1B780133DAB22E4B1A7019
:1044200005E02D4B00221A702C4B00221A7010212F
:10443000214809F059F90346012B03D1284B0022EA
:104440001A7009E010211C4809F04EF90346002BB0
:1044500002D1234B01221A702021174809F044F998
:104460000346012B03D11F4B00221A7009E02021C3
:10447000114809F039F90346002B02D1194B0122EA
:104480001A70144B4FF47A721A6058E7085F0020D4
:1044900000380140004400401C2B002088280020E8
:1044A00046190020C0280020843E0020EC2A00206D
:1044B000BC2A0020503E002000040048DE0F0020EF
:1044C0003C17002038170020C0D40100A02800208D
:1044D00035170020942800204419002015190020C9
:1044E000202800202128002080B596B000AF07F1D9
:1044F00014034422002118460FF0F0FD3B46002231
:104500001A605A609A60DA601A614FF400700AF01B
:10451000CBFE0346002B01D000F037F809237B6166
:104520004FF48033BB610123BB620223FB6303238F
:104530003B6405237B642023BB640723FB640223C5
:104540003B6502237B6507F1140318460AF00EFF52
:104550000346002B01D000F018F80F233B60032323
:104560007B600023BB600023FB6000233B613B4674
:10457000042118460BF046FC0346002B01D000F046
:1045800004F800BF5837BD4680BD80B400AF72B696
:1045900000BFFEE780B483B000AF7860396000BF31
:1045A0000C37BD465DF8047B70470000B0B584B0A1
:1045B00000AF4FF400600FF073FD0346FB60002373
:1045C0007B600023BB60FB68002B00F02C824FF463
:1045D00000620021F8680FF081FDFB686D491A4602
:1045E0000B461B881380F868FCF7FCF903461A4653
:1045F000FB68134468491A460B461B8813806749B9
:10460000F86810F0B7FAF868FCF7ECF903461A46B8
:10461000FB68134460491A460B461B881380F868F0
:10462000FCF7E0F903461A46FB6813445C4A1D4652
:1046300014460FCC28606960AA60EB6003CC286147
:1046400069612388A2782B831346AB76F868FCF760
:10465000C9F903461A46FB6813444F491A460B46EC
:104660001B881380F86801F059FBF868FCF7BAF969
:1046700003461A46FB6813444A491A460B4603CBC5
:10468000106051601B781372F868FCF7ABF90346B1
:104690001A46FB68134440491A460B461B88138090
:1046A000F86800F05BFBF868FCF79CF903461A46D3
:1046B000FB6813443C4A1188927819809A70F86814
:1046C000FCF790F903461A46FB681344374A106812
:1046D0001860F868FCF786F903461A46FB6813442D
:1046E0002D491A460B461B881380314B1B78002B33
:1046F0006CD03048FCF776F903461A4600212D4865
:104700000FF0ECFC00F0A8FB2B49F86810F032FA2F
:10471000F868FCF767F903461A46FB6813441E491C
:104720001A460B461B8813802449F86810F022FAB9
:10473000F868FCF757F903461A46FB681344164914
:104740001A460B461B8813801D49F86810F012FAB0
:10475000F868FCF747F903461A46FB6813440E490C
:104760001A460B461B8813801649F86810F002FAA7
:10477000F868FCF737F903461A46FB681344064904
:104780001A460B461B8813800F49F86810F0F2F99F
:1047900022E000BF888A01088C8A010800000020FE
:1047A000908A0108AC8A0108B88A0108BC8A01080D
:1047B0001C2B0020B22B002050190020581900207B
:1047C000641900204819002070190020984B1B68BC
:1047D0001946F86810F0CEF9F868FCF703F90346BB
:1047E0001A46FB68134493491A460B461B881380EC
:1047F000914B1B7818463B1D0A2219460FF04EFCC0
:104800003B1D1946F86810F0B5F98B4B1B785BB26D
:10481000002B06DA884B1B7803F07F03DAB2864B55
:104820001A70854B1B7803F04003002B06D0824B97
:104830001B7823F04003DAB27F4B1A70F868FCF75C
:10484000D1F803461A46FB6813447A491A460B46C8
:104850001B881380794BD3ED027AB0EE670A01F022
:10486000A7FA7749F86810F085F9F868FCF7BAF804
:1048700003461A46FB6813446E491A460B461B88CA
:1048800013806E4BD3ED037AB0EE670A01F090FA15
:104890006B49F86810F06EF9F868FCF7A3F8034666
:1048A0001A46FB68134463491A460B461B8813805B
:1048B000644B1B7818463B1D0A2219460FF0EEFB8D
:1048C0003B1D1946F86810F055F9F868FCF78AF8AE
:1048D00003461A46FB68134456491A460B461B8882
:1048E0001380594B1B7818463B1D0A2219460FF0BE
:1048F000D5FB3B1D1946F86810F03CF9F868FCF749
:1049000071F803461A46FB6813444A491A460B4697
:104910001B881380494B1B6818463B1D0A22194609
:104920000FF0BCFB3B1D1946F86810F023F9F8683E
:10493000FCF758F803461A46FB6813443D491A46EB
:104940000B461B881380F968012000F08BF8F9688A
:10495000022000F087F8F968032000F083F8F96876
:10496000042000F07FF8F968052000F07BF8F96872
:10497000062000F077F8F968072000F073F8F8686F
:10498000FCF730F803461A46FB6813442F4A1068B8
:10499000186092889A80F868FCF724F803461A4653
:1049A000FB68134423491A460B461B881380284989
:1049B000F86810F0DFF8F868FCF714F803461A46B8
:1049C000FB6813441B491A460B461B881380214B76
:1049D0001B78002B04D01F49F86810F0CBF805E0D5
:1049E0001D4B1B681946F86810F0C4F8F868FBF70F
:1049F000F9FF03461A46FB6813440E491A460B4654
:104A00001B881380F868FBF7EDFF03461A46FB6826
:104A1000134412491A460B461B881380104B01227F
:104A20001A60FB6800E0002318461037BD46B0BD91
:104A3000E00F00208C8A0108461900205C5F0020EE
:104A4000E80F00202028002021280020C08A01082B
:104A5000881D0020482C0020E40F0020C88A01088F
:104A6000F00F002080B586B000AF78603960002379
:104A7000FB6007F1100300221A609A803868FBF788
:104A8000B1FF03461A463B681344B04A10681860E9
:104A900012791A71AE4A7B68DB001344D3E9002314
:104AA000104607F10C03102219460FF0F7FA07F130
:104AB0000C031946386810F05DF83868FBF792FF70
:104AC00003461A463B681344A2491A460B461B8804
:104AD0001380A14A7B68DB001344D3E900014FF047
:104AE00000024FF000030A0E0023104607F10C03EA
:104AF000102219460FF0D2FA07F10C031946386854
:104B000010F038F83868FBF76DFF03461A463B682B
:104B1000134490491A460B461B8813808E4A7B68C3
:104B2000DB001344D3E900014FF000024FF0000313
:104B30000A0C00231346DBB207F10C0110221846C1
:104B40000FF0ACFA07F10C031946386810F012F8B0
:104B50003868FBF747FF03461A463B6813447D4914
:104B60001A460B461B8813807B4A7B68DB00134484
:104B7000D3E900014FF000024FF000030A0A0023BE
:104B80001346DBB207F10C01102218460FF086FA2B
:104B900007F10C03194638680FF0ECFF3868FBF793
:104BA00021FF03461A463B6813446A491A460B46DE
:104BB0001B881380684A7B68DB001344D3E900013B
:104BC0004FF000024FF000030A0000231346DBB24F
:104BD00007F10C01102218460FF060FA07F10C03E0
:104BE000194638680FF0C6FF3868FBF7FBFE03462E
:104BF0001A463B68134457491A460B461B881380D4
:104C0000554A7B68DB001344D3E900014FF00002F2
:104C10004FF00003020E42EA01220B0E1346DBB2F4
:104C200007F10C01102218460FF038FA07F10C03B7
:104C3000194638680FF09EFF3868FBF7D3FE03462D
:104C40001A463B68134443491A460B461B88138097
:104C5000414A7B68DB001344D3E900014FF00002B6
:104C60004FF00003020C42EA01420B0C1346DBB288
:104C700007F10C01102218460FF010FA07F10C038F
:104C8000194638680FF076FF3868FBF7ABFE03462D
:104C90001A463B6813442F491A460B461B8813805B
:104CA0002D4A7B68DB001344D3E900014FF000027A
:104CB0004FF00003020A42EA01620B0A1346DBB21C
:104CC00007F10C01102218460FF0E8F907F10C0368
:104CD000194638680FF04EFF3868FBF783FE03462D
:104CE0001A463B6813441B491A460B461B8813801F
:104CF000194A7B68DB001344D3E900231346DBB277
:104D000007F10C01102218460FF0C8F907F10C0347
:104D1000194638680FF02EFF3868FBF763FE03462C
:104D20001A463B6813440B491A460B461B881380EE
:104D3000094A7B68DB00D1184FF000024FF00003F6
:104D4000C1E9002300BF1837BD4680BDCC8A0108E9
:104D5000582300208C8A0108C821002080B582B029
:104D600000AF786003F082FE314978680FF002FFEF
:104D70007868FBF737FE03461A467B6813442D49D3
:104D80001A460B461B8813802B4978680FF0F2FEF9
:104D90007868FBF727FE03461A467B6813442549CB
:104DA0001A460B461B881380244978680FF0E2FEF0
:104DB0007868FBF717FE03461A467B6813442049C0
:104DC0001A460B461B8813801E4978680FF0D2FEE6
:104DD0007868FBF707FE03461A467B6813441A49B6
:104DE0001A460B461B881380184978680FF0C2FEDC
:104DF0007868FBF7F7FD03461A467B6813441249AF
:104E00001A460B461B881380114978680FF0B2FED2
:104E10007868FBF7E7FD03461A467B6813440D49A3
:104E20001A460B461B88138000BF0837BD4680BD5D
:104E3000C0140020D48A0108BC140020B41400203F
:104E4000D88A0108C4140020DC8A0108C814002094
:104E5000CC1400208C8A010880B586B000AF0023F6
:104E60007B6100233B610023FB7300237B6102E035
:104E70007B6901337B618D4A7B6913441B782C2B42
:104E8000F6D13B695A1C3A6188497A690A4411781B
:104E9000864A13440A4683F896207B6901337B6176
:104EA000824A7B6913441B782C2B2AD019E07F4A55
:104EB0007B69134419787D4A3B69134496330A464B
:104EC0001A70FB7B79497A690A441178784AD1547F
:104ED000FB7B0133FB733B6901333B617B6901332E
:104EE0007B61724A7B6913441B782E2BDFD102E071
:104EF0007B6901337B616D4A7B6913441B782C2BE2
:104F0000F6D13B695A1C3A6168497A690A441178BA
:104F1000664A13440A4683F896207B6901337B6115
:104F2000624A7B6913441B78412B07D101224FF45D
:104F300000414FF0904008F0FDFB0AE000224FF4E2
:104F400000414FF0904008F0F5FB02E07B6901332F
:104F50007B61564A7B6913441B782C2BF6D17B6905
:104F600001337B610023FB730A22002151480FF0BB
:104F7000B5F819E04D4A7B69134419784B4A3B69EF
:104F8000134496330A461A70FB7B5A1CFA7319466F
:104F9000464A7B6913441A78464B5A543B6901339D
:104FA0003B617B6901337B61404A7B6913441B7819
:104FB0002C2BDFD13F4B1B78002B3AD04FF0000356
:104FC000BB603D480FF01CF853EC102B10461946FF
:104FD000FCF71AFA0346BB6097ED027ADFED376AF9
:104FE000C7EE267AC7ED027A324B1B78A3F1300266
:104FF00013469B0013445B001A462E4B5B78303BF4
:10500000134407EE903AF8EEE77A97ED027A77EEDE
:10501000277AC7ED027A0A22002126480FF05EF8AF
:10502000B868FBF7A1FE02460B46254921480FF060
:1050300081FD3B695A1C3A611C497A690A4411781E
:105040001A4A13440A4683F896207B6901337B6130
:105050000FE0164A7B6913441978144A3B691344DC
:1050600096330A461A703B6901333B617B69013311
:105070007B610E4A7B6913441B782C2BE9D13B6979
:105080005A1C3A6109497A690A441178074A13445B
:105090000A4683F896207B6901337B610023FB730A
:1050A0000A22002107480FF019F827E01C2B0020E6
:1050B00050190020581900205A1900200000704291
:1050C000E08A010864190020734A7B691344197847
:1050D000714A3B69134496330A461A70FB7B5A1C8B
:1050E000FA7319466C4A7B6913441A786B4B5A540D
:1050F0003B6901333B617B6901337B61664A7B69B4
:1051000013441B782C2BDFD1644B1B78002B40D031
:105110004FF000037B6062480EF072FF53EC102BDF
:1051200010461946FCF770F903467B6097ED017A4B
:10513000DFED5C6AC7EE267AC7ED017A574B1B7824
:10514000303B642202FB03F1544B5B78A3F1300245
:1051500013469B0013445B00CA18504B9B78303BAE
:10516000134407EE903AF8EEE77A97ED017A77EE7E
:10517000277AC7ED017A0A22002148480EF0AEFFD7
:105180007868FBF7F1FD02460B46474943480FF0AC
:10519000D1FC3B695A1C3A613F497A690A4411784B
:1051A0003D4A13440A4683F896207B6901337B61AC
:1051B0000FE0394A7B6913441978374A3B69134435
:1051C00096330A461A703B6901333B617B690133B0
:1051D0007B61314A7B6913441B782C2BE9D13B69F5
:1051E0005A1C3A612C497A690A4411782A4A1344B4
:1051F0000A4683F896207B6901337B610023FB73A9
:105200000CE0FB7B5A1CFA731946234A7B69134452
:105210001A78264B5A547B6901337B611E4A7B699D
:1052200013441B782C2BECD17B6901337B6102E0AA
:105230007B6901337B61184A7B6913441B782C2BF3
:10524000F6D17B6901337B610023FB7319E0124ABD
:105250007B6913441978104A3B69134496330A4614
:105260001A70FB7B5A1CFA7319460B4A7B6913446C
:105270001A780F4B5A543B6901333B617B69013308
:105280007B61054A7B6913441B782C2BDFD100BF5F
:1052900000BF1837BD4680BD1C2B002064190020BC
:1052A0006719002000007042E08A01087019002090
:1052B0004819002080B582B000AF0346FB71FB792E
:1052C000184600F00BF803461946034800F018FE94
:1052D00000BF0837BD4680BDEC2A0020B0B584B0C1
:1052E00000AF0346FB714FF400600EF0D9FE034699
:1052F000FB60FB68002B00F094804FF400620021FB
:10530000F8680EF0EBFEFB6848491A460B461B880E
:105310001380F868FBF766FB03461A46FB681344E4
:1053200043491A460B461B8813804249F8680FF020
:1053300021FCF868FBF756FB03461A46FB6813444A
:105340003B491A460B461B881380F868FBF74AFB5B
:1053500003461A46FB681344374A1D4614460FCCD1
:1053600028606960AA60EB6003CC286169612388CA
:10537000A2782B831346AB76F86800F0CFFCF86870
:10538000FBF730FB03461A46FB6813442B4A1C46C6
:10539000134607CB20606160A260F868FBF722FB30
:1053A00003461A46FB68134421491A460B461B88DC
:1053B0001380F868FFF7D2FCF868FBF713FB03468D
:1053C0001A46FB6813441E4A1188927819809A7015
:1053D000F868FBF707FB03461A46FB681344194AB3
:1053E00010681860F868FBF7FDFA03461A46FB6878
:1053F00013440F491A460B461B881380FB79194644
:10540000F86800F023F8F868FBF7ECFA03461A4650
:10541000FB6813440C491A460B461B881380FB6833
:1054200000E0002318461037BD46B0BD888A010849
:105430008C8A010800000020908A0108E88A01088F
:10544000B88A0108BC8A0108C88A0108B0B588B0CA
:1054500000AF78600B46FB700023FB6007F1100380
:1054600000221A605A609A60DA60FB78632B00F2BF
:10547000F68301A252F823F009560008735600087B
:105480005F5C000897560008FB5600084D5700085F
:105490002D580008F95800087D590008E159000806
:1054A000B15A0008155B0008795B0008915C0008A0
:1054B000DD5B00085F5C00085F5C00085F5C000863
:1054C0005F5C00085F5C00085F5C00085F5C0008D0
:1054D0005F5C00085F5C00085F5C00085F5C0008C0
:1054E0005F5C00085F5C00085F5C00085F5C0008B0
:1054F0005F5C00085F5C00085F5C00085F5C0008A0
:105500005F5C00085F5C00085F5C00085F5C00088F
:105510005F5C00085F5C00085F5C00085F5C00087F
:105520005F5C00085F5C00085F5C00085F5C00086F
:105530005F5C00085F5C00085F5C00085F5C00085F
:105540005F5C00085F5C00085F5C00085F5C00084F
:105550005F5C00085F5C00085F5C00085F5C00083F
:105560005F5C00085F5C00085F5C00085F5C00082F
:105570005F5C00085F5C00085F5C00085F5C00081F
:105580005F5C00085F5C00085F5C00085F5C00080F
:105590005F5C00085F5C00085F5C00085F5C0008FF
:1055A0005F5C00085F5C00085F5C00085F5C0008EF
:1055B0005F5C00085F5C00085F5C00085F5C0008DF
:1055C0005F5C00085F5C00085F5C00085F5C0008CF
:1055D0005F5C00085F5C00085F5C00085F5C0008BF
:1055E0005F5C00085F5C00085F5C00085F5C0008AF
:1055F0005F5C00085F5C00085F5C00085F5C00089F
:105600005F5C00082D5C00087868FBF7EBF9034647
:105610001A467B681344AC4A1188927819809A70B4
:105620007868FBF7DFF903461A467B681344A749FD
:105630001A460B461B881380FB7807F10C010A22DF
:1056400018460EF02BFD07F10C03194678680FF091
:1056500091FA7868FBF7C6F903461A467B6813444B
:105660009A491A460B461B881380994B01221A70DF
:105670000FE37868FBF7B6F903461A467B681344D4
:10568000944A1C46134607CB20606160A26078688C
:1056900000F008FBFDE27868FBF7A4F903461A4620
:1056A0007B6813448C4A1188927819809A707868C4
:1056B000FBF798F903461A467B68134483491A4658
:1056C0000B461B881380FB7807F10C010A22184651
:1056D0000EF0E4FC07F10C03194678680FF04AFA63
:1056E0007868FBF77FF903461A467B6813447749CD
:1056F0001A460B461B881380CBE27868FBF772F9D9
:1057000003461A467B681344744A118892781980BC
:105710009A707868FBF766F903461A467B6813446B
:105720006A491A460B461B8813806D4978680FF04A
:1057300021FA7868FBF756F903461A467B6813444A
:1057400062491A460B461B881380A2E27868FBF771
:1057500049F903461A467B6813445F4A11889278D8
:1057600019809A707868FBF73DF903461A467B6802
:10577000134456491A460B461B881380FB7807F1E1
:105780000C010A2218460EF089FC07F10C03194699
:1057900078680FF0EFF97868FBF724F903461A46AA
:1057A0007B68134449491A460B461B881380786866
:1057B000FBF718F903461A467B681344494A1C460E
:1057C00015460FCD20606160A260E3607868FBF74A
:1057D00009F903461A467B6813443C491A460B46AE
:1057E0001B8813807868FBF7FDF803461A467B6830
:1057F00013443D4A1D4614460FCC28606960AA60D8
:10580000EB6003CC286169612388A2782B8313465F
:10581000AB767868FBF7E6F803461A467B681344D4
:105820002A491A460B461B88138032E27868FBF738
:10583000D9F803461A467B681344274A11889278A0
:1058400019809A707868FBF7CDF803461A467B6892
:1058500013441E491A460B461B881380FB7807F138
:105860000C010A2218460EF019FC07F10C03194628
:1058700078680FF07FF97868FBF7B4F803461A46AA
:105880007B681344194A1C4615460FCD20606160A1
:10589000A260E36028682061AB88AA79A3821346DE
:1058A000A375134978680FF065F97868FBF79AF8E3
:1058B00003461A467B6813440E491A460B4603CB2F
:1058C00010605160E5E100BFF48A01088C8A01088C
:1058D00076190020F88A0108048B0108088B01085A
:1058E000481800200C8B01081C8B0108388B01081C
:1058F0009C0F0020508B01087868FBF773F8034673
:105900001A467B681344C24A1188927819809A70AB
:105910007868FBF767F803461A467B681344BD496D
:105920001A460B461B881380FB7807F10C010A22EC
:1059300018460EF0B3FB07F10C03194678680FF018
:1059400019F97868FBF74EF803461A467B6813444A
:10595000B0491A460B461B881380AF4978680FF090
:1059600009F97868FBF73EF803461A467B6813444A
:10597000A8491A460B461B8813808AE17868FBF712
:1059800031F803461A467B681344A14A118892787D
:1059900019809A707868FBF725F803461A467B68E9
:1059A00013449C491A460B461B881380FB7807F169
:1059B0000C010A2218460EF071FB07F10C03194680
:1059C00078680FF0D7F87868FBF70CF803461A46AA
:1059D0007B6813448F491A460B461B88138058E195
:1059E0007868FAF7FFFF03461A467B681344884A33
:1059F0001188927819809A707868FAF7F3FF034655
:105A00001A467B68134483491A460B461B88138049
:105A1000FB7807F10C010A2218460EF03FFB07F154
:105A20000C03194678680FF0A5F87868FAF7DAFFE2
:105A300003461A467B68134476491A460B461B8870
:105A40001380764B1B68184607F10C030A2219468F
:105A50000EF024FB07F10C03194678680FF08AF862
:105A60007868FAF7BFFF03461A467B6813446C4A0E
:105A70001188927819809A706A4B1B68184607F152
:105A80000C030A2219460EF009FB07F10C03194614
:105A900078680FF06FF87868FAF7A4FF03461A46A3
:105AA0007B6813445B491A460B461B881380F0E061
:105AB0007868FAF797FF03461A467B681344544AFE
:105AC0001188927819809A707868FAF78BFF0346EC
:105AD0001A467B6813444F491A460B461B881380AD
:105AE000FB7807F10C010A2218460EF0D7FA07F1ED
:105AF0000C03194678680FF03DF87868FAF772FFE2
:105B000003461A467B68134442491A460B461B88D3
:105B10001380BEE07868FAF765FF03461A467B6893
:105B200013443B4A1188927819809A707868FAF782
:105B300059FF03461A467B68134436491A460B46FA
:105B40001B881380FB7807F10C010A2218460EF01F
:105B5000A5FA07F10C03194678680FF00BF878687E
:105B6000FAF740FF03461A467B68134429491A4650
:105B70000B461B8813808CE07868FAF733FF0346E6
:105B80001A467B681344224A1188927819809A70C9
:105B90007868FAF727FF03461A467B6813441D49C5
:105BA0001A460B461B881380FB7807F10C010A226A
:105BB00018460EF073FA07F10C03194678680EF0D8
:105BC000D9FF7868FAF70EFF03461A467B6813443C
:105BD00010491A460B461B8813805AE07868FAF77A
:105BE00001FF03461A467B6813440F4A11889278D6
:105BF00019809A707868FAF7F5FE03461A467B68B2
:105C0000134404491A460B461B88138041E000BF29
:105C1000048B01088C8A01089C0F0020F0180020DA
:105C2000588B0108F41800205C8B01087868FAF79B
:105C3000D9FE03461A467B681344184A1068186058
:105C400012791A717868FAF7CDFE03461A467B6816
:105C5000134413491A460B461B88138019E07868D1
:105C6000FAF7C0FE03461A467B6813440B4A1068D5
:105C7000186012791A717868FAF7B4FE03461A466A
:105C80007B68134406491A460B461B88138000E0C4
:105C900000BF00BF2037BD46B0BD00BF608B01080C
:105CA0008C8A010880B586B000AF78600123FB754F
:105CB0000023FB6007F1100300221A609A80012381
:105CC000FB751FE0FB7D134A52F82330184607F19D
:105CD0000C03102219460EF0E1F907F10C031946E6
:105CE00078680EF047FF7868FAF77CFE03461A469C
:105CF0007B68134408491A460B461B881380FB7DBA
:105D00000133FB75FB7D332BDCD900BF00BF183797
:105D1000BD4680BD1C1300208C8A010880B586B06A
:105D200000AF78600023FB6007F1100300221A60C7
:105D30009A8007F10C0311221B4918460EF0FAFE57
:105D400007F10C03194678680EF014FF07F10C03F5
:105D50000A22002118460EF0C1F907F10C030622B1
:105D6000114918460EF0E6FE07F10C031946786853
:105D70000EF000FF07F10C030A22002118460EF076
:105D8000ADF907F10C0340F2E772084918460EF02E
:105D9000D1FE07F10C03194678680EF0EBFE00BF48
:105DA0001837BD4680BD00BF688B01086C8B0108A9
:105DB00080B487B000AF87ED010A0023FB754FF078
:105DC00000033B610023FB81D7ED017AF5EEC07A39
:105DD000F1EE10FA6FDDD7ED017AFCEEE77AC7ED50
:105DE000007A3B68FB75D7ED017AFDEEE77AF8EEB5
:105DF000E77A97ED017A77EE677AC7ED047AD7ED07
:105E0000047A9FED337A67EE877AFCEEE77A17EE35
:105E1000903AFB81FB7D092B19D9FB7D2D4AA2FB12
:105E20000323DB08DBB23033DAB22B4B1A70FA7D76
:105E3000284BA3FB0213D9080B469B000B445B00C5
:105E4000D31ADBB23033DAB2234B5A7007E0224B5D
:105E500030221A70FB7D3033DAB21F4B5A701E4B62
:105E60002E229A70FB89092B1BD9FB89194AA2FBA8
:105E70000323DB089BB2DBB23033DAB2164BDA70A5
:105E8000FA89144BA3FB0213D9080B469B000B4461
:105E90005B00D31A9BB2DBB23033DAB20E4B1A710D
:105EA00010E00D4B3022DA70FB89DBB23033DAB20E
:105EB000094B1A7106E0084B084A92E80300186083
:105EC0000433197000BF1C37BD465DF8047B704772
:105ED0000000C842CDCCCCCCE80F0020708B01086C
:105EE00080B483B000AF78607B6800221A607B6862
:105EF00000225A6000BF0C37BD465DF8047B704736
:105F000080B582B000AF786039607B681A687B68C2
:105F10005B689A4205DC7B6800221A607B6800227D
:105F20005A607B681A687B68023253F82230002B73
:105F30000FD07B681A687B68023253F8223018460B
:105F40000EF0B6F87B681A687B680232002143F8CD
:105F500022103B68002B0BD07B681A687B680232EA
:105F6000396843F822107B681B685A1C7B681A60EA
:105F70007B681B68092B05DD044B01221A607B68D6
:105F800009221A6000BF0837BD4680BD781900207D
:105F900080B582B000AF78607B685B68002B03D16E
:105FA0007B681B68002B05D07B685A687B681B6880
:105FB0009A422CD17B685A687B681B689A4243DB03
:105FC0007B685B68002B3FD07B681B68002B3BD055
:105FD0007B685A687B68023253F82230002B0FD05E
:105FE0007B685A687B68023253F8223018460EF0FC
:105FF0005FF87B685A687B680232002143F8221000
:106000007B6800221A607B6800225A601CE07B6873
:106010005A687B68023253F8223018460EF048F86E
:106020007B685A687B680232002143F822107B6843
:106030005B685A1C7B685A607B685B68092B04DDCF
:106040007B6800225A6000E000BF00BF0837BD46F1
:1060500080BD80B483B000AF78607B681A687B68CD
:106060005B689A4209D17B685A687B68023253F8B0
:106070002230002B01D1012300E0002318460C3709
:10608000BD465DF8047B704780B483B000AF786094
:106090007B6800221A607B6800225A6000BF0C37C0
:1060A000BD465DF8047B704780B582B000AF786074
:1060B00039607B681A687B685B689A4205DC7B689C
:1060C00000221A607B6800225A607B681A687B682D
:1060D000023253F82230002B0FD07B681A687B689D
:1060E000023253F8223018460DF0E2FF7B681A683E
:1060F0007B680232002143F822103B68002B0BD052
:106100007B681A687B680232396843F822107B6822
:106110001B685A1C7B681A607B681B68082B02DDB1
:106120007B6808221A6000BF0837BD4680BD80B575
:1061300082B000AF78607B685B68002B03D17B681E
:106140001B68002B05D07B685A687B681B689A42E5
:106150002CD17B685A687B681B689A4243DB7B685A
:106160005B68002B3FD07B681B68002B3BD07B68B3
:106170005A687B68023253F82230002B0FD07B68BC
:106180005A687B68023253F8223018460DF090FFAF
:106190007B685A687B680232002143F822107B68D2
:1061A00000221A607B6800225A601CE07B685A68F3
:1061B0007B68023253F8223018460DF079FF7B6875
:1061C0005A687B680232002143F822107B685B68C2
:1061D0005A1C7B685A607B685B68082B04DD7B680F
:1061E00000225A6000E000BF00BF0837BD4680BDF6
:1061F00080B483B000AF78607B681A687B685B68A6
:106200009A4209D17B685A687B68023253F822307F
:10621000002B01D1012300E0002318460C37BD46B6
:106220005DF8047B7047000080B500AF104B114A49
:106230001A600F4B00225A600D4B7F229A600C4B64
:10624000F922DA600A4B00221A61094B00225A61D6
:10625000074B00229A61064B0022DA6104480AF0DB
:1062600093FD0346002B01D0FEF78FF900BF80BDE0
:10627000603E00200028004080B59AB000AF7860F2
:1062800007F108036022002118460DF027FF7B6804
:106290001B680F4A934217D14FF40033BB604FF491
:1062A00000737B6607F1080318460AF037F80346C7
:1062B000002B01D0FEF769F9064BD3F89030054A60
:1062C00043F40043C2F8903000BF6837BD4680BD3C
:1062D000002800400010024080B483B000AF786016
